{
	"data": {
		"bytecode": {
			"linkReferences": {},
			"object": "608060405234801561001057600080fd5b50600a60018190555060405161002590610087565b604051809103906000f080158015610041573d6000803e3d6000fd5b50600360006101000a81548173ffffffffffffffffffffffffffffffffffffffff021916908373ffffffffffffffffffffffffffffffffffffffff160217905550610094565b6102bd806105c483390190565b610521806100a36000396000f3fe608060405234801561001057600080fd5b506004361061007d5760003560e01c80633bc5de301161005b5780633bc5de30146100c65780635a9b0b89146100e45780637a85644b14610102578063de292789146101325761007d565b806309e96008146100825780630af1e05e1461009e578063370158ea146100a8575b600080fd5b61009c60048036038101906100979190610311565b610150565b005b6100a661015a565b005b6100b0610211565b6040516100bd9190610401565b60405180910390f35b6100ce610217565b6040516100db9190610401565b60405180910390f35b6100ec610220565b6040516100f99190610401565b60405180910390f35b61011c6004803603810190610117919061036b565b6102c7565b6040516101299190610401565b60405180910390f35b61013a6102dd565b6040516101479190610401565b60405180910390f35b8060008190555050565b600360009054906101000a900473ffffffffffffffffffffffffffffffffffffffff1673ffffffffffffffffffffffffffffffffffffffff16637a85644b601760056040518363ffffffff1660e01b81526004016101b99291906103d8565b60206040518083038186803b1580156101d157600080fd5b505afa1580156101e5573d6000803e3d6000fd5b505050506040513d601f19601f82011682018060405250810190610209919061033e565b600281905550565b60015481565b60008054905090565b6000600360009054906101000a900473ffffffffffffffffffffffffffffffffffffffff1673ffffffffffffffffffffffffffffffffffffffff1663370158ea6040518163ffffffff1660e01b815260040160206040518083038186803b15801561028a57600080fd5b505afa15801561029e573d6000803e3d6000fd5b505050506040513d601f19601f820116820180604052508101906102c2919061033e565b905090565b600081836102d5919061041c565b905092915050565b6000600254905090565b6000813590506102f6816104d4565b92915050565b60008151905061030b816104d4565b92915050565b600060208284031215610327576103266104cf565b5b6000610335848285016102e7565b91505092915050565b600060208284031215610354576103536104cf565b5b6000610362848285016102fc565b91505092915050565b60008060408385031215610382576103816104cf565b5b6000610390858286016102e7565b92505060206103a1858286016102e7565b9150509250929050565b6103b48161047c565b82525050565b6103c38161048e565b82525050565b6103d281610472565b82525050565b60006040820190506103ed60008301856103ab565b6103fa60208301846103ba565b9392505050565b600060208201905061041660008301846103c9565b92915050565b600061042782610472565b915061043283610472565b9250827fffffffffffffffffffffffffffffffffffffffffffffffffffffffffffffffff03821115610467576104666104a0565b5b828201905092915050565b6000819050919050565b600061048782610472565b9050919050565b600061049982610472565b9050919050565b7f4e487b7100000000000000000000000000000000000000000000000000000000600052601160045260246000fd5b600080fd5b6104dd81610472565b81146104e857600080fd5b5056fea26469706673582212206672c127adf088863aeb3c4c0b7f49a9db812a08193976e47bfbfa7b76f8457964736f6c63430008070033608060405234801561001057600080fd5b50600a600181905550610295806100286000396000f3fe608060405234801561001057600080fd5b506004361061004c5760003560e01c806309e9600814610051578063370158ea1461006d5780633bc5de301461008b5780637a85644b146100a9575b600080fd5b61006b6004803603810190610066919061011d565b6100d9565b005b6100756100e3565b6040516100829190610199565b60405180910390f35b6100936100e9565b6040516100a09190610199565b60405180910390f35b6100c360048036038101906100be919061014a565b6100f2565b6040516100d09190610199565b60405180910390f35b8060008190555050565b60015481565b60008054905090565b6000818361010091906101b4565b905092915050565b60008135905061011781610248565b92915050565b60006020828403121561013357610132610243565b5b600061014184828501610108565b91505092915050565b6000806040838503121561016157610160610243565b5b600061016f85828601610108565b925050602061018085828601610108565b9150509250929050565b6101938161020a565b82525050565b60006020820190506101ae600083018461018a565b92915050565b60006101bf8261020a565b91506101ca8361020a565b9250827fffffffffffffffffffffffffffffffffffffffffffffffffffffffffffffffff038211156101ff576101fe610214565b5b828201905092915050565b6000819050919050565b7f4e487b7100000000000000000000000000000000000000000000000000000000600052601160045260246000fd5b600080fd5b6102518161020a565b811461025c57600080fd5b5056fea2646970667358221220c4fd4dbfa5566f96a0049c86ab60cfb5437777a74678c8082393f830848e1e4264736f6c63430008070033",
			"opcodes": "PUSH1 0x80 PUSH1 0x40 MSTORE CALLVALUE DUP1 ISZERO PUSH2 0x10 JUMPI PUSH1 0x0 DUP1 REVERT JUMPDEST POP PUSH1 0xA PUSH1 0x1 DUP2 SWAP1 SSTORE POP PUSH1 0x40 MLOAD PUSH2 0x25 SWAP1 PUSH2 0x87 JUMP JUMPDEST PUSH1 0x40 MLOAD DUP1 SWAP2 SUB SWAP1 PUSH1 0x0 CREATE DUP1 ISZERO DUP1 ISZERO PUSH2 0x41 JUMPI RETURNDATASIZE PUSH1 0x0 DUP1 RETURNDATACOPY RETURNDATASIZE PUSH1 0x0 REVERT JUMPDEST POP PUSH1 0x3 PUSH1 0x0 PUSH2 0x100 EXP DUP2 SLOAD DUP2 PUSH20 0xFFFFFFFFFFFFFFFFFFFFFFFFFFFFFFFFFFFFFFFF MUL NOT AND SWAP1 DUP4 PUSH20 0xFFFFFFFFFFFFFFFFFFFFFFFFFFFFFFFFFFFFFFFF AND MUL OR SWAP1 SSTORE POP PUSH2 0x94 JUMP JUMPDEST PUSH2 0x2BD DUP1 PUSH2 0x5C4 DUP4 CODECOPY ADD SWAP1 JUMP JUMPDEST PUSH2 0x521 DUP1 PUSH2 0xA3 PUSH1 0x0 CODECOPY PUSH1 0x0 RETURN INVALID PUSH1 0x80 PUSH1 0x40 MSTORE CALLVALUE DUP1 ISZERO PUSH2 0x10 JUMPI PUSH1 0x0 DUP1 REVERT JUMPDEST POP PUSH1 0x4 CALLDATASIZE LT PUSH2 0x7D JUMPI PUSH1 0x0 CALLDATALOAD PUSH1 0xE0 SHR DUP1 PUSH4 0x3BC5DE30 GT PUSH2 0x5B JUMPI DUP1 PUSH4 0x3BC5DE30 EQ PUSH2 0xC6 JUMPI DUP1 PUSH4 0x5A9B0B89 EQ PUSH2 0xE4 JUMPI DUP1 PUSH4 0x7A85644B EQ PUSH2 0x102 JUMPI DUP1 PUSH4 0xDE292789 EQ PUSH2 0x132 JUMPI PUSH2 0x7D JUMP JUMPDEST DUP1 PUSH4 0x9E96008 EQ PUSH2 0x82 JUMPI DUP1 PUSH4 0xAF1E05E EQ PUSH2 0x9E JUMPI DUP1 PUSH4 0x370158EA EQ PUSH2 0xA8 JUMPI JUMPDEST PUSH1 0x0 DUP1 REVERT JUMPDEST PUSH2 0x9C PUSH1 0x4 DUP1 CALLDATASIZE SUB DUP2 ADD SWAP1 PUSH2 0x97 SWAP2 SWAP1 PUSH2 0x311 JUMP JUMPDEST PUSH2 0x150 JUMP JUMPDEST STOP JUMPDEST PUSH2 0xA6 PUSH2 0x15A JUMP JUMPDEST STOP JUMPDEST PUSH2 0xB0 PUSH2 0x211 JUMP JUMPDEST PUSH1 0x40 MLOAD PUSH2 0xBD SWAP2 SWAP1 PUSH2 0x401 JUMP JUMPDEST PUSH1 0x40 MLOAD DUP1 SWAP2 SUB SWAP1 RETURN JUMPDEST PUSH2 0xCE PUSH2 0x217 JUMP JUMPDEST PUSH1 0x40 MLOAD PUSH2 0xDB SWAP2 SWAP1 PUSH2 0x401 JUMP JUMPDEST PUSH1 0x40 MLOAD DUP1 SWAP2 SUB SWAP1 RETURN JUMPDEST PUSH2 0xEC PUSH2 0x220 JUMP JUMPDEST PUSH1 0x40 MLOAD PUSH2 0xF9 SWAP2 SWAP1 PUSH2 0x401 JUMP JUMPDEST PUSH1 0x40 MLOAD DUP1 SWAP2 SUB SWAP1 RETURN JUMPDEST PUSH2 0x11C PUSH1 0x4 DUP1 CALLDATASIZE SUB DUP2 ADD SWAP1 PUSH2 0x117 SWAP2 SWAP1 PUSH2 0x36B JUMP JUMPDEST PUSH2 0x2C7 JUMP JUMPDEST PUSH1 0x40 MLOAD PUSH2 0x129 SWAP2 SWAP1 PUSH2 0x401 JUMP JUMPDEST PUSH1 0x40 MLOAD DUP1 SWAP2 SUB SWAP1 RETURN JUMPDEST PUSH2 0x13A PUSH2 0x2DD JUMP JUMPDEST PUSH1 0x40 MLOAD PUSH2 0x147 SWAP2 SWAP1 PUSH2 0x401 JUMP JUMPDEST PUSH1 0x40 MLOAD DUP1 SWAP2 SUB SWAP1 RETURN JUMPDEST DUP1 PUSH1 0x0 DUP2 SWAP1 SSTORE POP POP JUMP JUMPDEST PUSH1 0x3 PUSH1 0x0 SWAP1 SLOAD SWAP1 PUSH2 0x100 EXP SWAP1 DIV PUSH20 0xFFFFFFFFFFFFFFFFFFFFFFFFFFFFFFFFFFFFFFFF AND PUSH20 0xFFFFFFFFFFFFFFFFFFFFFFFFFFFFFFFFFFFFFFFF AND PUSH4 0x7A85644B PUSH1 0x17 PUSH1 0x5 PUSH1 0x40 MLOAD DUP4 PUSH4 0xFFFFFFFF AND PUSH1 0xE0 SHL DUP2 MSTORE PUSH1 0x4 ADD PUSH2 0x1B9 SWAP3 SWAP2 SWAP1 PUSH2 0x3D8 JUMP JUMPDEST PUSH1 0x20 PUSH1 0x40 MLOAD DUP1 DUP4 SUB DUP2 DUP7 DUP1 EXTCODESIZE ISZERO DUP1 ISZERO PUSH2 0x1D1 JUMPI PUSH1 0x0 DUP1 REVERT JUMPDEST POP GAS STATICCALL ISZERO DUP1 ISZERO PUSH2 0x1E5 JUMPI RETURNDATASIZE PUSH1 0x0 DUP1 RETURNDATACOPY RETURNDATASIZE PUSH1 0x0 REVERT JUMPDEST POP POP POP POP PUSH1 0x40 MLOAD RETURNDATASIZE PUSH1 0x1F NOT PUSH1 0x1F DUP3 ADD AND DUP3 ADD DUP1 PUSH1 0x40 MSTORE POP DUP2 ADD SWAP1 PUSH2 0x209 SWAP2 SWAP1 PUSH2 0x33E JUMP JUMPDEST PUSH1 0x2 DUP2 SWAP1 SSTORE POP JUMP JUMPDEST PUSH1 0x1 SLOAD DUP2 JUMP JUMPDEST PUSH1 0x0 DUP1 SLOAD SWAP1 POP SWAP1 JUMP JUMPDEST PUSH1 0x0 PUSH1 0x3 PUSH1 0x0 SWAP1 SLOAD SWAP1 PUSH2 0x100 EXP SWAP1 DIV PUSH20 0xFFFFFFFFFFFFFFFFFFFFFFFFFFFFFFFFFFFFFFFF AND PUSH20 0xFFFFFFFFFFFFFFFFFFFFFFFFFFFFFFFFFFFFFFFF AND PUSH4 0x370158EA PUSH1 0x40 MLOAD DUP2 PUSH4 0xFFFFFFFF AND PUSH1 0xE0 SHL DUP2 MSTORE PUSH1 0x4 ADD PUSH1 0x20 PUSH1 0x40 MLOAD DUP1 DUP4 SUB DUP2 DUP7 DUP1 EXTCODESIZE ISZERO DUP1 ISZERO PUSH2 0x28A JUMPI PUSH1 0x0 DUP1 REVERT JUMPDEST POP GAS STATICCALL ISZERO DUP1 ISZERO PUSH2 0x29E JUMPI RETURNDATASIZE PUSH1 0x0 DUP1 RETURNDATACOPY RETURNDATASIZE PUSH1 0x0 REVERT JUMPDEST POP POP POP POP PUSH1 0x40 MLOAD RETURNDATASIZE PUSH1 0x1F NOT PUSH1 0x1F DUP3 ADD AND DUP3 ADD DUP1 PUSH1 0x40 MSTORE POP DUP2 ADD SWAP1 PUSH2 0x2C2 SWAP2 SWAP1 PUSH2 0x33E JUMP JUMPDEST SWAP1 POP SWAP1 JUMP JUMPDEST PUSH1 0x0 DUP2 DUP4 PUSH2 0x2D5 SWAP2 SWAP1 PUSH2 0x41C JUMP JUMPDEST SWAP1 POP SWAP3 SWAP2 POP POP JUMP JUMPDEST PUSH1 0x0 PUSH1 0x2 SLOAD SWAP1 POP SWAP1 JUMP JUMPDEST PUSH1 0x0 DUP2 CALLDATALOAD SWAP1 POP PUSH2 0x2F6 DUP2 PUSH2 0x4D4 JUMP JUMPDEST SWAP3 SWAP2 POP POP JUMP JUMPDEST PUSH1 0x0 DUP2 MLOAD SWAP1 POP PUSH2 0x30B DUP2 PUSH2 0x4D4 JUMP JUMPDEST SWAP3 SWAP2 POP POP JUMP JUMPDEST PUSH1 0x0 PUSH1 0x20 DUP3 DUP5 SUB SLT ISZERO PUSH2 0x327 JUMPI PUSH2 0x326 PUSH2 0x4CF JUMP JUMPDEST JUMPDEST PUSH1 0x0 PUSH2 0x335 DUP5 DUP3 DUP6 ADD PUSH2 0x2E7 JUMP JUMPDEST SWAP2 POP POP SWAP3 SWAP2 POP POP JUMP JUMPDEST PUSH1 0x0 PUSH1 0x20 DUP3 DUP5 SUB SLT ISZERO PUSH2 0x354 JUMPI PUSH2 0x353 PUSH2 0x4CF JUMP JUMPDEST JUMPDEST PUSH1 0x0 PUSH2 0x362 DUP5 DUP3 DUP6 ADD PUSH2 0x2FC JUMP JUMPDEST SWAP2 POP POP SWAP3 SWAP2 POP POP JUMP JUMPDEST PUSH1 0x0 DUP1 PUSH1 0x40 DUP4 DUP6 SUB SLT ISZERO PUSH2 0x382 JUMPI PUSH2 0x381 PUSH2 0x4CF JUMP JUMPDEST JUMPDEST PUSH1 0x0 PUSH2 0x390 DUP6 DUP3 DUP7 ADD PUSH2 0x2E7 JUMP JUMPDEST SWAP3 POP POP PUSH1 0x20 PUSH2 0x3A1 DUP6 DUP3 DUP7 ADD PUSH2 0x2E7 JUMP JUMPDEST SWAP2 POP POP SWAP3 POP SWAP3 SWAP1 POP JUMP JUMPDEST PUSH2 0x3B4 DUP2 PUSH2 0x47C JUMP JUMPDEST DUP3 MSTORE POP POP JUMP JUMPDEST PUSH2 0x3C3 DUP2 PUSH2 0x48E JUMP JUMPDEST DUP3 MSTORE POP POP JUMP JUMPDEST PUSH2 0x3D2 DUP2 PUSH2 0x472 JUMP JUMPDEST DUP3 MSTORE POP POP JUMP JUMPDEST PUSH1 0x0 PUSH1 0x40 DUP3 ADD SWAP1 POP PUSH2 0x3ED PUSH1 0x0 DUP4 ADD DUP6 PUSH2 0x3AB JUMP JUMPDEST PUSH2 0x3FA PUSH1 0x20 DUP4 ADD DUP5 PUSH2 0x3BA JUMP JUMPDEST SWAP4 SWAP3 POP POP POP JUMP JUMPDEST PUSH1 0x0 PUSH1 0x20 DUP3 ADD SWAP1 POP PUSH2 0x416 PUSH1 0x0 DUP4 ADD DUP5 PUSH2 0x3C9 JUMP JUMPDEST SWAP3 SWAP2 POP POP JUMP JUMPDEST PUSH1 0x0 PUSH2 0x427 DUP3 PUSH2 0x472 JUMP JUMPDEST SWAP2 POP PUSH2 0x432 DUP4 PUSH2 0x472 JUMP JUMPDEST SWAP3 POP DUP3 PUSH32 0xFFFFFFFFFFFFFFFFFFFFFFFFFFFFFFFFFFFFFFFFFFFFFFFFFFFFFFFFFFFFFFFF SUB DUP3 GT ISZERO PUSH2 0x467 JUMPI PUSH2 0x466 PUSH2 0x4A0 JUMP JUMPDEST JUMPDEST DUP3 DUP3 ADD SWAP1 POP SWAP3 SWAP2 POP POP JUMP JUMPDEST PUSH1 0x0 DUP2 SWAP1 POP SWAP2 SWAP1 POP JUMP JUMPDEST PUSH1 0x0 PUSH2 0x487 DUP3 PUSH2 0x472 JUMP JUMPDEST SWAP1 POP SWAP2 SWAP1 POP JUMP JUMPDEST PUSH1 0x0 PUSH2 0x499 DUP3 PUSH2 0x472 JUMP JUMPDEST SWAP1 POP SWAP2 SWAP1 POP JUMP JUMPDEST PUSH32 0x4E487B7100000000000000000000000000000000000000000000000000000000 PUSH1 0x0 MSTORE PUSH1 0x11 PUSH1 0x4 MSTORE PUSH1 0x24 PUSH1 0x0 REVERT JUMPDEST PUSH1 0x0 DUP1 REVERT JUMPDEST PUSH2 0x4DD DUP2 PUSH2 0x472 JUMP JUMPDEST DUP2 EQ PUSH2 0x4E8 JUMPI PUSH1 0x0 DUP1 REVERT JUMPDEST POP JUMP INVALID LOG2 PUSH5 0x6970667358 0x22 SLT KECCAK256 PUSH7 0x72C127ADF08886 GASPRICE 0xEB EXTCODECOPY 0x4C SIGNEXTEND PUSH32 0x49A9DB812A08193976E47BFBFA7B76F8457964736F6C63430008070033608060 BLOCKHASH MSTORE CALLVALUE DUP1 ISZERO PUSH2 0x10 JUMPI PUSH1 0x0 DUP1 REVERT JUMPDEST POP PUSH1 0xA PUSH1 0x1 DUP2 SWAP1 SSTORE POP PUSH2 0x295 DUP1 PUSH2 0x28 PUSH1 0x0 CODECOPY PUSH1 0x0 RETURN INVALID PUSH1 0x80 PUSH1 0x40 MSTORE CALLVALUE DUP1 ISZERO PUSH2 0x10 JUMPI PUSH1 0x0 DUP1 REVERT JUMPDEST POP PUSH1 0x4 CALLDATASIZE LT PUSH2 0x4C JUMPI PUSH1 0x0 CALLDATALOAD PUSH1 0xE0 SHR DUP1 PUSH4 0x9E96008 EQ PUSH2 0x51 JUMPI DUP1 PUSH4 0x370158EA EQ PUSH2 0x6D JUMPI DUP1 PUSH4 0x3BC5DE30 EQ PUSH2 0x8B JUMPI DUP1 PUSH4 0x7A85644B EQ PUSH2 0xA9 JUMPI JUMPDEST PUSH1 0x0 DUP1 REVERT JUMPDEST PUSH2 0x6B PUSH1 0x4 DUP1 CALLDATASIZE SUB DUP2 ADD SWAP1 PUSH2 0x66 SWAP2 SWAP1 PUSH2 0x11D JUMP JUMPDEST PUSH2 0xD9 JUMP JUMPDEST STOP JUMPDEST PUSH2 0x75 PUSH2 0xE3 JUMP JUMPDEST PUSH1 0x40 MLOAD PUSH2 0x82 SWAP2 SWAP1 PUSH2 0x199 JUMP JUMPDEST PUSH1 0x40 MLOAD DUP1 SWAP2 SUB SWAP1 RETURN JUMPDEST PUSH2 0x93 PUSH2 0xE9 JUMP JUMPDEST PUSH1 0x40 MLOAD PUSH2 0xA0 SWAP2 SWAP1 PUSH2 0x199 JUMP JUMPDEST PUSH1 0x40 MLOAD DUP1 SWAP2 SUB SWAP1 RETURN JUMPDEST PUSH2 0xC3 PUSH1 0x4 DUP1 CALLDATASIZE SUB DUP2 ADD SWAP1 PUSH2 0xBE SWAP2 SWAP1 PUSH2 0x14A JUMP JUMPDEST PUSH2 0xF2 JUMP JUMPDEST PUSH1 0x40 MLOAD PUSH2 0xD0 SWAP2 SWAP1 PUSH2 0x199 JUMP JUMPDEST PUSH1 0x40 MLOAD DUP1 SWAP2 SUB SWAP1 RETURN JUMPDEST DUP1 PUSH1 0x0 DUP2 SWAP1 SSTORE POP POP JUMP JUMPDEST PUSH1 0x1 SLOAD DUP2 JUMP JUMPDEST PUSH1 0x0 DUP1 SLOAD SWAP1 POP SWAP1 JUMP JUMPDEST PUSH1 0x0 DUP2 DUP4 PUSH2 0x100 SWAP2 SWAP1 PUSH2 0x1B4 JUMP JUMPDEST SWAP1 POP SWAP3 SWAP2 POP POP JUMP JUMPDEST PUSH1 0x0 DUP2 CALLDATALOAD SWAP1 POP PUSH2 0x117 DUP2 PUSH2 0x248 JUMP JUMPDEST SWAP3 SWAP2 POP POP JUMP JUMPDEST PUSH1 0x0 PUSH1 0x20 DUP3 DUP5 SUB SLT ISZERO PUSH2 0x133 JUMPI PUSH2 0x132 PUSH2 0x243 JUMP JUMPDEST JUMPDEST PUSH1 0x0 PUSH2 0x141 DUP5 DUP3 DUP6 ADD PUSH2 0x108 JUMP JUMPDEST SWAP2 POP POP SWAP3 SWAP2 POP POP JUMP JUMPDEST PUSH1 0x0 DUP1 PUSH1 0x40 DUP4 DUP6 SUB SLT ISZERO PUSH2 0x161 JUMPI PUSH2 0x160 PUSH2 0x243 JUMP JUMPDEST JUMPDEST PUSH1 0x0 PUSH2 0x16F DUP6 DUP3 DUP7 ADD PUSH2 0x108 JUMP JUMPDEST SWAP3 POP POP PUSH1 0x20 PUSH2 0x180 DUP6 DUP3 DUP7 ADD PUSH2 0x108 JUMP JUMPDEST SWAP2 POP POP SWAP3 POP SWAP3 SWAP1 POP JUMP JUMPDEST PUSH2 0x193 DUP2 PUSH2 0x20A JUMP JUMPDEST DUP3 MSTORE POP POP JUMP JUMPDEST PUSH1 0x0 PUSH1 0x20 DUP3 ADD SWAP1 POP PUSH2 0x1AE PUSH1 0x0 DUP4 ADD DUP5 PUSH2 0x18A JUMP JUMPDEST SWAP3 SWAP2 POP POP JUMP JUMPDEST PUSH1 0x0 PUSH2 0x1BF DUP3 PUSH2 0x20A JUMP JUMPDEST SWAP2 POP PUSH2 0x1CA DUP4 PUSH2 0x20A JUMP JUMPDEST SWAP3 POP DUP3 PUSH32 0xFFFFFFFFFFFFFFFFFFFFFFFFFFFFFFFFFFFFFFFFFFFFFFFFFFFFFFFFFFFFFFFF SUB DUP3 GT ISZERO PUSH2 0x1FF JUMPI PUSH2 0x1FE PUSH2 0x214 JUMP JUMPDEST JUMPDEST DUP3 DUP3 ADD SWAP1 POP SWAP3 SWAP2 POP POP JUMP JUMPDEST PUSH1 0x0 DUP2 SWAP1 POP SWAP2 SWAP1 POP JUMP JUMPDEST PUSH32 0x4E487B7100000000000000000000000000000000000000000000000000000000 PUSH1 0x0 MSTORE PUSH1 0x11 PUSH1 0x4 MSTORE PUSH1 0x24 PUSH1 0x0 REVERT JUMPDEST PUSH1 0x0 DUP1 REVERT JUMPDEST PUSH2 0x251 DUP2 PUSH2 0x20A JUMP JUMPDEST DUP2 EQ PUSH2 0x25C JUMPI PUSH1 0x0 DUP1 REVERT JUMPDEST POP JUMP INVALID LOG2 PUSH5 0x6970667358 0x22 SLT KECCAK256 0xC4 REVERT 0x4D 0xBF 0xA5 JUMP PUSH16 0x96A0049C86AB60CFB5437777A74678C8 ADDMOD 0x23 SWAP4 0xF8 ADDRESS DUP5 DUP15 0x1E TIMESTAMP PUSH5 0x736F6C6343 STOP ADDMOD SMOD STOP CALLER "
		},
		"gasEstimates": {
			"creation": {
				"codeDepositCost": "262600",
				"executionCost": "infinite",
				"totalCost": "infinite"
			},
			"external": {
				"compute(uint256,uint256)": "infinite",
				"getComputeResult()": "infinite",
				"getData()": "2437",
				"getInfo()": "infinite",
				"getResult()": "2503",
				"info()": "2474",
				"updateData(uint256)": "22521"
			}
		},
		"methodIdentifiers": {
			"compute(uint256,uint256)": "7a85644b",
			"getComputeResult()": "0af1e05e",
			"getData()": "3bc5de30",
			"getInfo()": "5a9b0b89",
			"getResult()": "de292789",
			"info()": "370158ea",
			"updateData(uint256)": "09e96008"
		}
	},
	"abi": [
		{
			"inputs": [],
			"stateMutability": "nonpayable",
			"type": "constructor"
		},
		{
			"inputs": [
				{
					"internalType": "uint256",
					"name": "a",
					"type": "uint256"
				},
				{
					"internalType": "uint256",
					"name": "b",
					"type": "uint256"
				}
			],
			"name": "compute",
			"outputs": [
				{
					"internalType": "uint256",
					"name": "",
					"type": "uint256"
				}
			],
			"stateMutability": "pure",
			"type": "function"
		},
		{
			"inputs": [],
			"name": "getComputeResult",
			"outputs": [],
			"stateMutability": "nonpayable",
			"type": "function"
		},
		{
			"inputs": [],
			"name": "getData",
			"outputs": [
				{
					"internalType": "uint256",
					"name": "",
					"type": "uint256"
				}
			],
			"stateMutability": "view",
			"type": "function"
		},
		{
			"inputs": [],
			"name": "getInfo",
			"outputs": [
				{
					"internalType": "uint256",
					"name": "",
					"type": "uint256"
				}
			],
			"stateMutability": "view",
			"type": "function"
		},
		{
			"inputs": [],
			"name": "getResult",
			"outputs": [
				{
					"internalType": "uint256",
					"name": "",
					"type": "uint256"
				}
			],
			"stateMutability": "view",
			"type": "function"
		},
		{
			"inputs": [],
			"name": "info",
			"outputs": [
				{
					"internalType": "uint256",
					"name": "",
					"type": "uint256"
				}
			],
			"stateMutability": "view",
			"type": "function"
		},
		{
			"inputs": [
				{
					"internalType": "uint256",
					"name": "_data",
					"type": "uint256"
				}
			],
			"name": "updateData",
			"outputs": [],
			"stateMutability": "nonpayable",
			"type": "function"
		}
	]
}