{
	"data": {
		"bytecode": {
			"linkReferences": {},
			"object": "6080604052600a60005534801561001557600080fd5b50610185806100256000396000f3fe608060405234801561001057600080fd5b50600436106100365760003560e01c806398b108231461003b578063f3593cd014610059575b600080fd5b610043610077565b60405161005091906100a5565b60405180910390f35b61006161008d565b60405161006e91906100a5565b60405180910390f35b6000600360005461008891906100c0565b905090565b60006015905090565b61009f81610116565b82525050565b60006020820190506100ba6000830184610096565b92915050565b60006100cb82610116565b91506100d683610116565b9250827fffffffffffffffffffffffffffffffffffffffffffffffffffffffffffffffff0382111561010b5761010a610120565b5b828201905092915050565b6000819050919050565b7f4e487b7100000000000000000000000000000000000000000000000000000000600052601160045260246000fdfea26469706673582212208c6efe9e4687bb32866a2179e4799ef1062a9bbae5c11e7a029725ba685073ef64736f6c63430008070033",
			"opcodes": "PUSH1 0x80 PUSH1 0x40 MSTORE PUSH1 0xA PUSH1 0x0 SSTORE CALLVALUE DUP1 ISZERO PUSH2 0x15 JUMPI PUSH1 0x0 DUP1 REVERT JUMPDEST POP PUSH2 0x185 DUP1 PUSH2 0x25 PUSH1 0x0 CODECOPY PUSH1 0x0 RETURN INVALID PUSH1 0x80 PUSH1 0x40 MSTORE CALLVALUE DUP1 ISZERO PUSH2 0x10 JUMPI PUSH1 0x0 DUP1 REVERT JUMPDEST POP PUSH1 0x4 CALLDATASIZE LT PUSH2 0x36 JUMPI PUSH1 0x0 CALLDATALOAD PUSH1 0xE0 SHR DUP1 PUSH4 0x98B10823 EQ PUSH2 0x3B JUMPI DUP1 PUSH4 0xF3593CD0 EQ PUSH2 0x59 JUMPI JUMPDEST PUSH1 0x0 DUP1 REVERT JUMPDEST PUSH2 0x43 PUSH2 0x77 JUMP JUMPDEST PUSH1 0x40 MLOAD PUSH2 0x50 SWAP2 SWAP1 PUSH2 0xA5 JUMP JUMPDEST PUSH1 0x40 MLOAD DUP1 SWAP2 SUB SWAP1 RETURN JUMPDEST PUSH2 0x61 PUSH2 0x8D JUMP JUMPDEST PUSH1 0x40 MLOAD PUSH2 0x6E SWAP2 SWAP1 PUSH2 0xA5 JUMP JUMPDEST PUSH1 0x40 MLOAD DUP1 SWAP2 SUB SWAP1 RETURN JUMPDEST PUSH1 0x0 PUSH1 0x3 PUSH1 0x0 SLOAD PUSH2 0x88 SWAP2 SWAP1 PUSH2 0xC0 JUMP JUMPDEST SWAP1 POP SWAP1 JUMP JUMPDEST PUSH1 0x0 PUSH1 0x15 SWAP1 POP SWAP1 JUMP JUMPDEST PUSH2 0x9F DUP2 PUSH2 0x116 JUMP JUMPDEST DUP3 MSTORE POP POP JUMP JUMPDEST PUSH1 0x0 PUSH1 0x20 DUP3 ADD SWAP1 POP PUSH2 0xBA PUSH1 0x0 DUP4 ADD DUP5 PUSH2 0x96 JUMP JUMPDEST SWAP3 SWAP2 POP POP JUMP JUMPDEST PUSH1 0x0 PUSH2 0xCB DUP3 PUSH2 0x116 JUMP JUMPDEST SWAP2 POP PUSH2 0xD6 DUP4 PUSH2 0x116 JUMP JUMPDEST SWAP3 POP DUP3 PUSH32 0xFFFFFFFFFFFFFFFFFFFFFFFFFFFFFFFFFFFFFFFFFFFFFFFFFFFFFFFFFFFFFFFF SUB DUP3 GT ISZERO PUSH2 0x10B JUMPI PUSH2 0x10A PUSH2 0x120 JUMP JUMPDEST JUMPDEST DUP3 DUP3 ADD SWAP1 POP SWAP3 SWAP2 POP POP JUMP JUMPDEST PUSH1 0x0 DUP2 SWAP1 POP SWAP2 SWAP1 POP JUMP JUMPDEST PUSH32 0x4E487B7100000000000000000000000000000000000000000000000000000000 PUSH1 0x0 MSTORE PUSH1 0x11 PUSH1 0x4 MSTORE PUSH1 0x24 PUSH1 0x0 REVERT INVALID LOG2 PUSH5 0x6970667358 0x22 SLT KECCAK256 DUP13 PUSH15 0xFE9E4687BB32866A2179E4799EF106 0x2A SWAP12 0xBA 0xE5 0xC1 0x1E PUSH27 0x29725BA685073EF64736F6C634300080700330000000000000000 "
		},
		"gasEstimates": {
			"creation": {
				"codeDepositCost": "77800",
				"executionCost": "22235",
				"totalCost": "100035"
			},
			"external": {
				"multiply()": "337",
				"valuePlusThree()": "infinite"
			}
		},
		"methodIdentifiers": {
			"multiply()": "f3593cd0",
			"valuePlusThree()": "98b10823"
		}
	},
	"abi": [
		{
			"inputs": [],
			"name": "multiply",
			"outputs": [
				{
					"internalType": "uint256",
					"name": "",
					"type": "uint256"
				}
			],
			"stateMutability": "pure",
			"type": "function"
		},
		{
			"inputs": [],
			"name": "valuePlusThree",
			"outputs": [
				{
					"internalType": "uint256",
					"name": "",
					"type": "uint256"
				}
			],
			"stateMutability": "view",
			"type": "function"
		}
	]
}