{
	"data": {
		"bytecode": {
			"linkReferences": {},
			"object": "6080604052336000806101000a81548173ffffffffffffffffffffffffffffffffffffffff021916908373ffffffffffffffffffffffffffffffffffffffff1602179055504260015534801561005457600080fd5b50610692806100646000396000f3fe60806040526004361061004a5760003560e01c80630cb0c7f01461004f5780631e9bf0da1461006b57806385eac05f146100825780638da5cb5b146100ab578063d8270dce146100d6575b600080fd5b610069600480360381019061006491906103a9565b610101565b005b34801561007757600080fd5b50610080610192565b005b34801561008e57600080fd5b506100a960048036038101906100a491906103a9565b610299565b005b3480156100b757600080fd5b506100c061036a565b6040516100cd919061045d565b60405180910390f35b3480156100e257600080fd5b506100eb61038e565b6040516100f891906104d8565b60405180910390f35b680ad78ebc5ac62000008034101561014e576040517f08c379a0000000000000000000000000000000000000000000000000000000008152600401610145906104b8565b60405180910390fd5b816000806101000a81548173ffffffffffffffffffffffffffffffffffffffff021916908373ffffffffffffffffffffffffffffffffffffffff1602179055505050565b60008054906101000a900473ffffffffffffffffffffffffffffffffffffffff1673ffffffffffffffffffffffffffffffffffffffff163373ffffffffffffffffffffffffffffffffffffffff1614610220576040517f08c379a000000000000000000000000000000000000000000000000000000000815260040161021790610478565b60405180910390fd5b600560015461022f9190610504565b80421015610272576040517f08c379a000000000000000000000000000000000000000000000000000000000815260040161026990610498565b60405180910390fd5b6000806101000a81549073ffffffffffffffffffffffffffffffffffffffff021916905550565b60008054906101000a900473ffffffffffffffffffffffffffffffffffffffff1673ffffffffffffffffffffffffffffffffffffffff163373ffffffffffffffffffffffffffffffffffffffff1614610327576040517f08c379a000000000000000000000000000000000000000000000000000000000815260040161031e90610478565b60405180910390fd5b806000806101000a81548173ffffffffffffffffffffffffffffffffffffffff021916908373ffffffffffffffffffffffffffffffffffffffff16021790555050565b60008054906101000a900473ffffffffffffffffffffffffffffffffffffffff1681565b60015481565b6000813590506103a381610645565b92915050565b6000602082840312156103bf576103be6105c5565b5b60006103cd84828501610394565b91505092915050565b6103df8161055a565b82525050565b60006103f26015836104f3565b91506103fd826105ca565b602082019050919050565b6000610415601c836104f3565b9150610420826105f3565b602082019050919050565b60006104386019836104f3565b91506104438261061c565b602082019050919050565b6104578161058c565b82525050565b600060208201905061047260008301846103d6565b92915050565b60006020820190508181036000830152610491816103e5565b9050919050565b600060208201905081810360008301526104b181610408565b9050919050565b600060208201905081810360008301526104d18161042b565b9050919050565b60006020820190506104ed600083018461044e565b92915050565b600082825260208201905092915050565b600061050f8261058c565b915061051a8361058c565b9250827fffffffffffffffffffffffffffffffffffffffffffffffffffffffffffffffff0382111561054f5761054e610596565b5b828201905092915050565b60006105658261056c565b9050919050565b600073ffffffffffffffffffffffffffffffffffffffff82169050919050565b6000819050919050565b7f4e487b7100000000000000000000000000000000000000000000000000000000600052601160045260246000fd5b600080fd5b7f53656e646572206e6f7420617574686f72697a65640000000000000000000000600082015250565b7f46756e6374696f6e2069732063616c6c656420746f6f206561726c7900000000600082015250565b7f4e6f7420656e6f7567682065746865722070726f766964656400000000000000600082015250565b61064e8161055a565b811461065957600080fd5b5056fea264697066735822122035c42ca4241988080bdaf4923ff5f0e11307de405b24338cd0c673dbc645c73964736f6c63430008070033",
			"opcodes": "PUSH1 0x80 PUSH1 0x40 MSTORE CALLER PUSH1 0x0 DUP1 PUSH2 0x100 EXP DUP2 SLOAD DUP2 PUSH20 0xFFFFFFFFFFFFFFFFFFFFFFFFFFFFFFFFFFFFFFFF MUL NOT AND SWAP1 DUP4 PUSH20 0xFFFFFFFFFFFFFFFFFFFFFFFFFFFFFFFFFFFFFFFF AND MUL OR SWAP1 SSTORE POP TIMESTAMP PUSH1 0x1 SSTORE CALLVALUE DUP1 ISZERO PUSH2 0x54 JUMPI PUSH1 0x0 DUP1 REVERT JUMPDEST POP PUSH2 0x692 DUP1 PUSH2 0x64 PUSH1 0x0 CODECOPY PUSH1 0x0 RETURN INVALID PUSH1 0x80 PUSH1 0x40 MSTORE PUSH1 0x4 CALLDATASIZE LT PUSH2 0x4A JUMPI PUSH1 0x0 CALLDATALOAD PUSH1 0xE0 SHR DUP1 PUSH4 0xCB0C7F0 EQ PUSH2 0x4F JUMPI DUP1 PUSH4 0x1E9BF0DA EQ PUSH2 0x6B JUMPI DUP1 PUSH4 0x85EAC05F EQ PUSH2 0x82 JUMPI DUP1 PUSH4 0x8DA5CB5B EQ PUSH2 0xAB JUMPI DUP1 PUSH4 0xD8270DCE EQ PUSH2 0xD6 JUMPI JUMPDEST PUSH1 0x0 DUP1 REVERT JUMPDEST PUSH2 0x69 PUSH1 0x4 DUP1 CALLDATASIZE SUB DUP2 ADD SWAP1 PUSH2 0x64 SWAP2 SWAP1 PUSH2 0x3A9 JUMP JUMPDEST PUSH2 0x101 JUMP JUMPDEST STOP JUMPDEST CALLVALUE DUP1 ISZERO PUSH2 0x77 JUMPI PUSH1 0x0 DUP1 REVERT JUMPDEST POP PUSH2 0x80 PUSH2 0x192 JUMP JUMPDEST STOP JUMPDEST CALLVALUE DUP1 ISZERO PUSH2 0x8E JUMPI PUSH1 0x0 DUP1 REVERT JUMPDEST POP PUSH2 0xA9 PUSH1 0x4 DUP1 CALLDATASIZE SUB DUP2 ADD SWAP1 PUSH2 0xA4 SWAP2 SWAP1 PUSH2 0x3A9 JUMP JUMPDEST PUSH2 0x299 JUMP JUMPDEST STOP JUMPDEST CALLVALUE DUP1 ISZERO PUSH2 0xB7 JUMPI PUSH1 0x0 DUP1 REVERT JUMPDEST POP PUSH2 0xC0 PUSH2 0x36A JUMP JUMPDEST PUSH1 0x40 MLOAD PUSH2 0xCD SWAP2 SWAP1 PUSH2 0x45D JUMP JUMPDEST PUSH1 0x40 MLOAD DUP1 SWAP2 SUB SWAP1 RETURN JUMPDEST CALLVALUE DUP1 ISZERO PUSH2 0xE2 JUMPI PUSH1 0x0 DUP1 REVERT JUMPDEST POP PUSH2 0xEB PUSH2 0x38E JUMP JUMPDEST PUSH1 0x40 MLOAD PUSH2 0xF8 SWAP2 SWAP1 PUSH2 0x4D8 JUMP JUMPDEST PUSH1 0x40 MLOAD DUP1 SWAP2 SUB SWAP1 RETURN JUMPDEST PUSH9 0xAD78EBC5AC6200000 DUP1 CALLVALUE LT ISZERO PUSH2 0x14E JUMPI PUSH1 0x40 MLOAD PUSH32 0x8C379A000000000000000000000000000000000000000000000000000000000 DUP2 MSTORE PUSH1 0x4 ADD PUSH2 0x145 SWAP1 PUSH2 0x4B8 JUMP JUMPDEST PUSH1 0x40 MLOAD DUP1 SWAP2 SUB SWAP1 REVERT JUMPDEST DUP2 PUSH1 0x0 DUP1 PUSH2 0x100 EXP DUP2 SLOAD DUP2 PUSH20 0xFFFFFFFFFFFFFFFFFFFFFFFFFFFFFFFFFFFFFFFF MUL NOT AND SWAP1 DUP4 PUSH20 0xFFFFFFFFFFFFFFFFFFFFFFFFFFFFFFFFFFFFFFFF AND MUL OR SWAP1 SSTORE POP POP POP JUMP JUMPDEST PUSH1 0x0 DUP1 SLOAD SWAP1 PUSH2 0x100 EXP SWAP1 DIV PUSH20 0xFFFFFFFFFFFFFFFFFFFFFFFFFFFFFFFFFFFFFFFF AND PUSH20 0xFFFFFFFFFFFFFFFFFFFFFFFFFFFFFFFFFFFFFFFF AND CALLER PUSH20 0xFFFFFFFFFFFFFFFFFFFFFFFFFFFFFFFFFFFFFFFF AND EQ PUSH2 0x220 JUMPI PUSH1 0x40 MLOAD PUSH32 0x8C379A000000000000000000000000000000000000000000000000000000000 DUP2 MSTORE PUSH1 0x4 ADD PUSH2 0x217 SWAP1 PUSH2 0x478 JUMP JUMPDEST PUSH1 0x40 MLOAD DUP1 SWAP2 SUB SWAP1 REVERT JUMPDEST PUSH1 0x5 PUSH1 0x1 SLOAD PUSH2 0x22F SWAP2 SWAP1 PUSH2 0x504 JUMP JUMPDEST DUP1 TIMESTAMP LT ISZERO PUSH2 0x272 JUMPI PUSH1 0x40 MLOAD PUSH32 0x8C379A000000000000000000000000000000000000000000000000000000000 DUP2 MSTORE PUSH1 0x4 ADD PUSH2 0x269 SWAP1 PUSH2 0x498 JUMP JUMPDEST PUSH1 0x40 MLOAD DUP1 SWAP2 SUB SWAP1 REVERT JUMPDEST PUSH1 0x0 DUP1 PUSH2 0x100 EXP DUP2 SLOAD SWAP1 PUSH20 0xFFFFFFFFFFFFFFFFFFFFFFFFFFFFFFFFFFFFFFFF MUL NOT AND SWAP1 SSTORE POP JUMP JUMPDEST PUSH1 0x0 DUP1 SLOAD SWAP1 PUSH2 0x100 EXP SWAP1 DIV PUSH20 0xFFFFFFFFFFFFFFFFFFFFFFFFFFFFFFFFFFFFFFFF AND PUSH20 0xFFFFFFFFFFFFFFFFFFFFFFFFFFFFFFFFFFFFFFFF AND CALLER PUSH20 0xFFFFFFFFFFFFFFFFFFFFFFFFFFFFFFFFFFFFFFFF AND EQ PUSH2 0x327 JUMPI PUSH1 0x40 MLOAD PUSH32 0x8C379A000000000000000000000000000000000000000000000000000000000 DUP2 MSTORE PUSH1 0x4 ADD PUSH2 0x31E SWAP1 PUSH2 0x478 JUMP JUMPDEST PUSH1 0x40 MLOAD DUP1 SWAP2 SUB SWAP1 REVERT JUMPDEST DUP1 PUSH1 0x0 DUP1 PUSH2 0x100 EXP DUP2 SLOAD DUP2 PUSH20 0xFFFFFFFFFFFFFFFFFFFFFFFFFFFFFFFFFFFFFFFF MUL NOT AND SWAP1 DUP4 PUSH20 0xFFFFFFFFFFFFFFFFFFFFFFFFFFFFFFFFFFFFFFFF AND MUL OR SWAP1 SSTORE POP POP JUMP JUMPDEST PUSH1 0x0 DUP1 SLOAD SWAP1 PUSH2 0x100 EXP SWAP1 DIV PUSH20 0xFFFFFFFFFFFFFFFFFFFFFFFFFFFFFFFFFFFFFFFF AND DUP2 JUMP JUMPDEST PUSH1 0x1 SLOAD DUP2 JUMP JUMPDEST PUSH1 0x0 DUP2 CALLDATALOAD SWAP1 POP PUSH2 0x3A3 DUP2 PUSH2 0x645 JUMP JUMPDEST SWAP3 SWAP2 POP POP JUMP JUMPDEST PUSH1 0x0 PUSH1 0x20 DUP3 DUP5 SUB SLT ISZERO PUSH2 0x3BF JUMPI PUSH2 0x3BE PUSH2 0x5C5 JUMP JUMPDEST JUMPDEST PUSH1 0x0 PUSH2 0x3CD DUP5 DUP3 DUP6 ADD PUSH2 0x394 JUMP JUMPDEST SWAP2 POP POP SWAP3 SWAP2 POP POP JUMP JUMPDEST PUSH2 0x3DF DUP2 PUSH2 0x55A JUMP JUMPDEST DUP3 MSTORE POP POP JUMP JUMPDEST PUSH1 0x0 PUSH2 0x3F2 PUSH1 0x15 DUP4 PUSH2 0x4F3 JUMP JUMPDEST SWAP2 POP PUSH2 0x3FD DUP3 PUSH2 0x5CA JUMP JUMPDEST PUSH1 0x20 DUP3 ADD SWAP1 POP SWAP2 SWAP1 POP JUMP JUMPDEST PUSH1 0x0 PUSH2 0x415 PUSH1 0x1C DUP4 PUSH2 0x4F3 JUMP JUMPDEST SWAP2 POP PUSH2 0x420 DUP3 PUSH2 0x5F3 JUMP JUMPDEST PUSH1 0x20 DUP3 ADD SWAP1 POP SWAP2 SWAP1 POP JUMP JUMPDEST PUSH1 0x0 PUSH2 0x438 PUSH1 0x19 DUP4 PUSH2 0x4F3 JUMP JUMPDEST SWAP2 POP PUSH2 0x443 DUP3 PUSH2 0x61C JUMP JUMPDEST PUSH1 0x20 DUP3 ADD SWAP1 POP SWAP2 SWAP1 POP JUMP JUMPDEST PUSH2 0x457 DUP2 PUSH2 0x58C JUMP JUMPDEST DUP3 MSTORE POP POP JUMP JUMPDEST PUSH1 0x0 PUSH1 0x20 DUP3 ADD SWAP1 POP PUSH2 0x472 PUSH1 0x0 DUP4 ADD DUP5 PUSH2 0x3D6 JUMP JUMPDEST SWAP3 SWAP2 POP POP JUMP JUMPDEST PUSH1 0x0 PUSH1 0x20 DUP3 ADD SWAP1 POP DUP2 DUP2 SUB PUSH1 0x0 DUP4 ADD MSTORE PUSH2 0x491 DUP2 PUSH2 0x3E5 JUMP JUMPDEST SWAP1 POP SWAP2 SWAP1 POP JUMP JUMPDEST PUSH1 0x0 PUSH1 0x20 DUP3 ADD SWAP1 POP DUP2 DUP2 SUB PUSH1 0x0 DUP4 ADD MSTORE PUSH2 0x4B1 DUP2 PUSH2 0x408 JUMP JUMPDEST SWAP1 POP SWAP2 SWAP1 POP JUMP JUMPDEST PUSH1 0x0 PUSH1 0x20 DUP3 ADD SWAP1 POP DUP2 DUP2 SUB PUSH1 0x0 DUP4 ADD MSTORE PUSH2 0x4D1 DUP2 PUSH2 0x42B JUMP JUMPDEST SWAP1 POP SWAP2 SWAP1 POP JUMP JUMPDEST PUSH1 0x0 PUSH1 0x20 DUP3 ADD SWAP1 POP PUSH2 0x4ED PUSH1 0x0 DUP4 ADD DUP5 PUSH2 0x44E JUMP JUMPDEST SWAP3 SWAP2 POP POP JUMP JUMPDEST PUSH1 0x0 DUP3 DUP3 MSTORE PUSH1 0x20 DUP3 ADD SWAP1 POP SWAP3 SWAP2 POP POP JUMP JUMPDEST PUSH1 0x0 PUSH2 0x50F DUP3 PUSH2 0x58C JUMP JUMPDEST SWAP2 POP PUSH2 0x51A DUP4 PUSH2 0x58C JUMP JUMPDEST SWAP3 POP DUP3 PUSH32 0xFFFFFFFFFFFFFFFFFFFFFFFFFFFFFFFFFFFFFFFFFFFFFFFFFFFFFFFFFFFFFFFF SUB DUP3 GT ISZERO PUSH2 0x54F JUMPI PUSH2 0x54E PUSH2 0x596 JUMP JUMPDEST JUMPDEST DUP3 DUP3 ADD SWAP1 POP SWAP3 SWAP2 POP POP JUMP JUMPDEST PUSH1 0x0 PUSH2 0x565 DUP3 PUSH2 0x56C JUMP JUMPDEST SWAP1 POP SWAP2 SWAP1 POP JUMP JUMPDEST PUSH1 0x0 PUSH20 0xFFFFFFFFFFFFFFFFFFFFFFFFFFFFFFFFFFFFFFFF DUP3 AND SWAP1 POP SWAP2 SWAP1 POP JUMP JUMPDEST PUSH1 0x0 DUP2 SWAP1 POP SWAP2 SWAP1 POP JUMP JUMPDEST PUSH32 0x4E487B7100000000000000000000000000000000000000000000000000000000 PUSH1 0x0 MSTORE PUSH1 0x11 PUSH1 0x4 MSTORE PUSH1 0x24 PUSH1 0x0 REVERT JUMPDEST PUSH1 0x0 DUP1 REVERT JUMPDEST PUSH32 0x53656E646572206E6F7420617574686F72697A65640000000000000000000000 PUSH1 0x0 DUP3 ADD MSTORE POP JUMP JUMPDEST PUSH32 0x46756E6374696F6E2069732063616C6C656420746F6F206561726C7900000000 PUSH1 0x0 DUP3 ADD MSTORE POP JUMP JUMPDEST PUSH32 0x4E6F7420656E6F7567682065746865722070726F766964656400000000000000 PUSH1 0x0 DUP3 ADD MSTORE POP JUMP JUMPDEST PUSH2 0x64E DUP2 PUSH2 0x55A JUMP JUMPDEST DUP2 EQ PUSH2 0x659 JUMPI PUSH1 0x0 DUP1 REVERT JUMPDEST POP JUMP INVALID LOG2 PUSH5 0x6970667358 0x22 SLT KECCAK256 CALLDATALOAD 0xC4 0x2C LOG4 0x24 NOT DUP9 ADDMOD SIGNEXTEND 0xDA DELEGATECALL SWAP3 EXTCODEHASH CREATE2 CREATE 0xE1 SGT SMOD 0xDE BLOCKHASH JUMPDEST 0x24 CALLER DUP13 0xD0 0xC6 PUSH20 0xDBC645C73964736F6C6343000807003300000000 "
		},
		"gasEstimates": {
			"creation": {
				"codeDepositCost": "336400",
				"executionCost": "46745",
				"totalCost": "383145"
			},
			"external": {
				"changeOwnerAddress(address)": "26911",
				"creationTime()": "2495",
				"disown()": "infinite",
				"forceOwnerChange(address)": "24706",
				"owner()": "2555"
			}
		},
		"methodIdentifiers": {
			"changeOwnerAddress(address)": "85eac05f",
			"creationTime()": "d8270dce",
			"disown()": "1e9bf0da",
			"forceOwnerChange(address)": "0cb0c7f0",
			"owner()": "8da5cb5b"
		}
	},
	"abi": [
		{
			"inputs": [
				{
					"internalType": "address",
					"name": "_newAddress",
					"type": "address"
				}
			],
			"name": "changeOwnerAddress",
			"outputs": [],
			"stateMutability": "nonpayable",
			"type": "function"
		},
		{
			"inputs": [],
			"name": "creationTime",
			"outputs": [
				{
					"internalType": "uint256",
					"name": "",
					"type": "uint256"
				}
			],
			"stateMutability": "view",
			"type": "function"
		},
		{
			"inputs": [],
			"name": "disown",
			"outputs": [],
			"stateMutability": "nonpayable",
			"type": "function"
		},
		{
			"inputs": [
				{
					"internalType": "address",
					"name": "_address",
					"type": "address"
				}
			],
			"name": "forceOwnerChange",
			"outputs": [],
			"stateMutability": "payable",
			"type": "function"
		},
		{
			"inputs": [],
			"name": "owner",
			"outputs": [
				{
					"internalType": "address",
					"name": "",
					"type": "address"
				}
			],
			"stateMutability": "view",
			"type": "function"
		}
	]
}