{
	"data": {
		"bytecode": {
			"linkReferences": {},
			"object": "6080604052610143600055603660015534801561001b57600080fd5b506101288061002b6000396000f3fe6080604052348015600f57600080fd5b506004361060285760003560e01c80633da0ac7914602d575b600080fd5b60336035565b005b60015460005411156079576040517f08c379a0000000000000000000000000000000000000000000000000000000008152600401607090609a565b60405180910390fd5b565b6000608660188360b8565b9150608f8260c9565b602082019050919050565b6000602082019050818103600083015260b181607b565b9050919050565b600082825260208201905092915050565b7f5468697320636f6d70617269736f6e2069732066616c7365000000000000000060008201525056fea26469706673582212202df8b79b8d24df6c0a85d8de20c1a7cac3544e839c90cf346b7c498632290e1064736f6c63430008070033",
			"opcodes": "PUSH1 0x80 PUSH1 0x40 MSTORE PUSH2 0x143 PUSH1 0x0 SSTORE PUSH1 0x36 PUSH1 0x1 SSTORE CALLVALUE DUP1 ISZERO PUSH2 0x1B JUMPI PUSH1 0x0 DUP1 REVERT JUMPDEST POP PUSH2 0x128 DUP1 PUSH2 0x2B PUSH1 0x0 CODECOPY PUSH1 0x0 RETURN INVALID PUSH1 0x80 PUSH1 0x40 MSTORE CALLVALUE DUP1 ISZERO PUSH1 0xF JUMPI PUSH1 0x0 DUP1 REVERT JUMPDEST POP PUSH1 0x4 CALLDATASIZE LT PUSH1 0x28 JUMPI PUSH1 0x0 CALLDATALOAD PUSH1 0xE0 SHR DUP1 PUSH4 0x3DA0AC79 EQ PUSH1 0x2D JUMPI JUMPDEST PUSH1 0x0 DUP1 REVERT JUMPDEST PUSH1 0x33 PUSH1 0x35 JUMP JUMPDEST STOP JUMPDEST PUSH1 0x1 SLOAD PUSH1 0x0 SLOAD GT ISZERO PUSH1 0x79 JUMPI PUSH1 0x40 MLOAD PUSH32 0x8C379A000000000000000000000000000000000000000000000000000000000 DUP2 MSTORE PUSH1 0x4 ADD PUSH1 0x70 SWAP1 PUSH1 0x9A JUMP JUMPDEST PUSH1 0x40 MLOAD DUP1 SWAP2 SUB SWAP1 REVERT JUMPDEST JUMP JUMPDEST PUSH1 0x0 PUSH1 0x86 PUSH1 0x18 DUP4 PUSH1 0xB8 JUMP JUMPDEST SWAP2 POP PUSH1 0x8F DUP3 PUSH1 0xC9 JUMP JUMPDEST PUSH1 0x20 DUP3 ADD SWAP1 POP SWAP2 SWAP1 POP JUMP JUMPDEST PUSH1 0x0 PUSH1 0x20 DUP3 ADD SWAP1 POP DUP2 DUP2 SUB PUSH1 0x0 DUP4 ADD MSTORE PUSH1 0xB1 DUP2 PUSH1 0x7B JUMP JUMPDEST SWAP1 POP SWAP2 SWAP1 POP JUMP JUMPDEST PUSH1 0x0 DUP3 DUP3 MSTORE PUSH1 0x20 DUP3 ADD SWAP1 POP SWAP3 SWAP2 POP POP JUMP JUMPDEST PUSH32 0x5468697320636F6D70617269736F6E2069732066616C73650000000000000000 PUSH1 0x0 DUP3 ADD MSTORE POP JUMP INVALID LOG2 PUSH5 0x6970667358 0x22 SLT KECCAK256 0x2D 0xF8 0xB7 SWAP12 DUP14 0x24 0xDF PUSH13 0xA85D8DE20C1A7CAC3544E839C SWAP1 0xCF CALLVALUE PUSH12 0x7C498632290E1064736F6C63 NUMBER STOP ADDMOD SMOD STOP CALLER "
		},
		"gasEstimates": {
			"creation": {
				"codeDepositCost": "59200",
				"executionCost": "44323",
				"totalCost": "103523"
			},
			"external": {
				"compare()": "4637"
			}
		},
		"methodIdentifiers": {
			"compare()": "3da0ac79"
		}
	},
	"abi": [
		{
			"inputs": [],
			"name": "compare",
			"outputs": [],
			"stateMutability": "view",
			"type": "function"
		}
	]
}