{
	"data": {
		"bytecode": {
			"linkReferences": {},
			"object": "60806040526011600055602060015534801561001a57600080fd5b506101eb8061002a6000396000f3fe608060405234801561001057600080fd5b506004361061002b5760003560e01c80633da0ac7914610030575b600080fd5b61003861004e565b60405161004591906100a7565b60405180910390f35b6000806000905060005460015411801561006c575060015460005414155b156100915760015460015460005461008491906100f3565b61008e91906100c2565b90505b8091505090565b6100a18161014d565b82525050565b60006020820190506100bc6000830184610098565b92915050565b60006100cd8261014d565b91506100d88361014d565b9250826100e8576100e7610186565b5b828204905092915050565b60006100fe8261014d565b91506101098361014d565b9250817fffffffffffffffffffffffffffffffffffffffffffffffffffffffffffffffff048311821515161561014257610141610157565b5b828202905092915050565b6000819050919050565b7f4e487b7100000000000000000000000000000000000000000000000000000000600052601160045260246000fd5b7f4e487b7100000000000000000000000000000000000000000000000000000000600052601260045260246000fdfea264697066735822122011c1aae01f91cdb1a52115849584ddb59c5339350a07e615c54a65ba6ddf1d2664736f6c63430008070033",
			"opcodes": "PUSH1 0x80 PUSH1 0x40 MSTORE PUSH1 0x11 PUSH1 0x0 SSTORE PUSH1 0x20 PUSH1 0x1 SSTORE CALLVALUE DUP1 ISZERO PUSH2 0x1A JUMPI PUSH1 0x0 DUP1 REVERT JUMPDEST POP PUSH2 0x1EB DUP1 PUSH2 0x2A PUSH1 0x0 CODECOPY PUSH1 0x0 RETURN INVALID PUSH1 0x80 PUSH1 0x40 MSTORE CALLVALUE DUP1 ISZERO PUSH2 0x10 JUMPI PUSH1 0x0 DUP1 REVERT JUMPDEST POP PUSH1 0x4 CALLDATASIZE LT PUSH2 0x2B JUMPI PUSH1 0x0 CALLDATALOAD PUSH1 0xE0 SHR DUP1 PUSH4 0x3DA0AC79 EQ PUSH2 0x30 JUMPI JUMPDEST PUSH1 0x0 DUP1 REVERT JUMPDEST PUSH2 0x38 PUSH2 0x4E JUMP JUMPDEST PUSH1 0x40 MLOAD PUSH2 0x45 SWAP2 SWAP1 PUSH2 0xA7 JUMP JUMPDEST PUSH1 0x40 MLOAD DUP1 SWAP2 SUB SWAP1 RETURN JUMPDEST PUSH1 0x0 DUP1 PUSH1 0x0 SWAP1 POP PUSH1 0x0 SLOAD PUSH1 0x1 SLOAD GT DUP1 ISZERO PUSH2 0x6C JUMPI POP PUSH1 0x1 SLOAD PUSH1 0x0 SLOAD EQ ISZERO JUMPDEST ISZERO PUSH2 0x91 JUMPI PUSH1 0x1 SLOAD PUSH1 0x1 SLOAD PUSH1 0x0 SLOAD PUSH2 0x84 SWAP2 SWAP1 PUSH2 0xF3 JUMP JUMPDEST PUSH2 0x8E SWAP2 SWAP1 PUSH2 0xC2 JUMP JUMPDEST SWAP1 POP JUMPDEST DUP1 SWAP2 POP POP SWAP1 JUMP JUMPDEST PUSH2 0xA1 DUP2 PUSH2 0x14D JUMP JUMPDEST DUP3 MSTORE POP POP JUMP JUMPDEST PUSH1 0x0 PUSH1 0x20 DUP3 ADD SWAP1 POP PUSH2 0xBC PUSH1 0x0 DUP4 ADD DUP5 PUSH2 0x98 JUMP JUMPDEST SWAP3 SWAP2 POP POP JUMP JUMPDEST PUSH1 0x0 PUSH2 0xCD DUP3 PUSH2 0x14D JUMP JUMPDEST SWAP2 POP PUSH2 0xD8 DUP4 PUSH2 0x14D JUMP JUMPDEST SWAP3 POP DUP3 PUSH2 0xE8 JUMPI PUSH2 0xE7 PUSH2 0x186 JUMP JUMPDEST JUMPDEST DUP3 DUP3 DIV SWAP1 POP SWAP3 SWAP2 POP POP JUMP JUMPDEST PUSH1 0x0 PUSH2 0xFE DUP3 PUSH2 0x14D JUMP JUMPDEST SWAP2 POP PUSH2 0x109 DUP4 PUSH2 0x14D JUMP JUMPDEST SWAP3 POP DUP2 PUSH32 0xFFFFFFFFFFFFFFFFFFFFFFFFFFFFFFFFFFFFFFFFFFFFFFFFFFFFFFFFFFFFFFFF DIV DUP4 GT DUP3 ISZERO ISZERO AND ISZERO PUSH2 0x142 JUMPI PUSH2 0x141 PUSH2 0x157 JUMP JUMPDEST JUMPDEST DUP3 DUP3 MUL SWAP1 POP SWAP3 SWAP2 POP POP JUMP JUMPDEST PUSH1 0x0 DUP2 SWAP1 POP SWAP2 SWAP1 POP JUMP JUMPDEST PUSH32 0x4E487B7100000000000000000000000000000000000000000000000000000000 PUSH1 0x0 MSTORE PUSH1 0x11 PUSH1 0x4 MSTORE PUSH1 0x24 PUSH1 0x0 REVERT JUMPDEST PUSH32 0x4E487B7100000000000000000000000000000000000000000000000000000000 PUSH1 0x0 MSTORE PUSH1 0x12 PUSH1 0x4 MSTORE PUSH1 0x24 PUSH1 0x0 REVERT INVALID LOG2 PUSH5 0x6970667358 0x22 SLT KECCAK256 GT 0xC1 0xAA 0xE0 0x1F SWAP2 0xCD 0xB1 0xA5 0x21 ISZERO DUP5 SWAP6 DUP5 0xDD 0xB5 SWAP13 MSTORE8 CODECOPY CALLDATALOAD EXP SMOD 0xE6 ISZERO 0xC5 0x4A PUSH6 0xBA6DDF1D2664 PUSH20 0x6F6C634300080700330000000000000000000000 "
		},
		"gasEstimates": {
			"creation": {
				"codeDepositCost": "98200",
				"executionCost": "44359",
				"totalCost": "142559"
			},
			"external": {
				"compare()": "infinite"
			}
		},
		"methodIdentifiers": {
			"compare()": "3da0ac79"
		}
	},
	"abi": [
		{
			"inputs": [],
			"name": "compare",
			"outputs": [
				{
					"internalType": "uint256",
					"name": "",
					"type": "uint256"
				}
			],
			"stateMutability": "view",
			"type": "function"
		}
	]
}