{
	"data": {
		"bytecode": {
			"linkReferences": {},
			"object": "608060405234801561001057600080fd5b50610923806100206000396000f3fe608060405234801561001057600080fd5b50600436106100415760003560e01c806311f7299014610046578063d87ec41714610077578063f40f48c9146100a8575b600080fd5b610060600480360381019061005b9190610581565b6100c4565b60405161006e9291906106b2565b60405180910390f35b610091600480360381019061008c91906105c1565b610205565b60405161009f9291906106b2565b60405180910390f35b6100c260048036038101906100bd91906105ee565b610339565b005b6001602052816000526040600020602052806000526040600020600091509150508060000180546100f4906107d9565b80601f0160208091040260200160405190810160405280929190818152602001828054610120906107d9565b801561016d5780601f106101425761010080835404028352916020019161016d565b820191906000526020600020905b81548152906001019060200180831161015057829003601f168201915b505050505090806001018054610182906107d9565b80601f01602080910402602001604051908101604052809291908181526020018280546101ae906107d9565b80156101fb5780601f106101d0576101008083540402835291602001916101fb565b820191906000526020600020905b8154815290600101906020018083116101de57829003601f168201915b5050505050905082565b6000602052806000526040600020600091509050806000018054610228906107d9565b80601f0160208091040260200160405190810160405280929190818152602001828054610254906107d9565b80156102a15780601f10610276576101008083540402835291602001916102a1565b820191906000526020600020905b81548152906001019060200180831161028457829003601f168201915b5050505050908060010180546102b6906107d9565b80601f01602080910402602001604051908101604052809291908181526020018280546102e2906107d9565b801561032f5780601f106103045761010080835404028352916020019161032f565b820191906000526020600020905b81548152906001019060200180831161031257829003601f168201915b5050505050905082565b604051806040016040528083815260200182815250600080858152602001908152602001600020600082015181600001908051906020019061037c929190610444565b506020820151816001019080519060200190610399929190610444565b50905050604051806040016040528083815260200182815250600160003373ffffffffffffffffffffffffffffffffffffffff1673ffffffffffffffffffffffffffffffffffffffff1681526020019081526020016000206000858152602001908152602001600020600082015181600001908051906020019061041e929190610444565b50602082015181600101908051906020019061043b929190610444565b50905050505050565b828054610450906107d9565b90600052602060002090601f01602090048101928261047257600085556104b9565b82601f1061048b57805160ff19168380011785556104b9565b828001600101855582156104b9579182015b828111156104b857825182559160200191906001019061049d565b5b5090506104c691906104ca565b5090565b5b808211156104e35760008160009055506001016104cb565b5090565b60006104fa6104f58461070e565b6106e9565b9050828152602081018484840111156105165761051561089f565b5b610521848285610797565b509392505050565b600081359050610538816108bf565b92915050565b600082601f8301126105535761055261089a565b5b81356105638482602086016104e7565b91505092915050565b60008135905061057b816108d6565b92915050565b60008060408385031215610598576105976108a9565b5b60006105a685828601610529565b92505060206105b78582860161056c565b9150509250929050565b6000602082840312156105d7576105d66108a9565b5b60006105e58482850161056c565b91505092915050565b600080600060608486031215610607576106066108a9565b5b60006106158682870161056c565b935050602084013567ffffffffffffffff811115610636576106356108a4565b5b6106428682870161053e565b925050604084013567ffffffffffffffff811115610663576106626108a4565b5b61066f8682870161053e565b9150509250925092565b60006106848261073f565b61068e818561074a565b935061069e8185602086016107a6565b6106a7816108ae565b840191505092915050565b600060408201905081810360008301526106cc8185610679565b905081810360208301526106e08184610679565b90509392505050565b60006106f3610704565b90506106ff828261080b565b919050565b6000604051905090565b600067ffffffffffffffff8211156107295761072861086b565b5b610732826108ae565b9050602081019050919050565b600081519050919050565b600082825260208201905092915050565b60006107668261076d565b9050919050565b600073ffffffffffffffffffffffffffffffffffffffff82169050919050565b6000819050919050565b82818337600083830152505050565b60005b838110156107c45780820151818401526020810190506107a9565b838111156107d3576000848401525b50505050565b600060028204905060018216806107f157607f821691505b602082108114156108055761080461083c565b5b50919050565b610814826108ae565b810181811067ffffffffffffffff821117156108335761083261086b565b5b80604052505050565b7f4e487b7100000000000000000000000000000000000000000000000000000000600052602260045260246000fd5b7f4e487b7100000000000000000000000000000000000000000000000000000000600052604160045260246000fd5b600080fd5b600080fd5b600080fd5b600080fd5b6000601f19601f8301169050919050565b6108c88161075b565b81146108d357600080fd5b50565b6108df8161078d565b81146108ea57600080fd5b5056fea264697066735822122048aad8473844f82c84890c72461886a636a99c499af4f46206240752173d215764736f6c63430008070033",
			"opcodes": "PUSH1 0x80 PUSH1 0x40 MSTORE CALLVALUE DUP1 ISZERO PUSH2 0x10 JUMPI PUSH1 0x0 DUP1 REVERT JUMPDEST POP PUSH2 0x923 DUP1 PUSH2 0x20 PUSH1 0x0 CODECOPY PUSH1 0x0 RETURN INVALID PUSH1 0x80 PUSH1 0x40 MSTORE CALLVALUE DUP1 ISZERO PUSH2 0x10 JUMPI PUSH1 0x0 DUP1 REVERT JUMPDEST POP PUSH1 0x4 CALLDATASIZE LT PUSH2 0x41 JUMPI PUSH1 0x0 CALLDATALOAD PUSH1 0xE0 SHR DUP1 PUSH4 0x11F72990 EQ PUSH2 0x46 JUMPI DUP1 PUSH4 0xD87EC417 EQ PUSH2 0x77 JUMPI DUP1 PUSH4 0xF40F48C9 EQ PUSH2 0xA8 JUMPI JUMPDEST PUSH1 0x0 DUP1 REVERT JUMPDEST PUSH2 0x60 PUSH1 0x4 DUP1 CALLDATASIZE SUB DUP2 ADD SWAP1 PUSH2 0x5B SWAP2 SWAP1 PUSH2 0x581 JUMP JUMPDEST PUSH2 0xC4 JUMP JUMPDEST PUSH1 0x40 MLOAD PUSH2 0x6E SWAP3 SWAP2 SWAP1 PUSH2 0x6B2 JUMP JUMPDEST PUSH1 0x40 MLOAD DUP1 SWAP2 SUB SWAP1 RETURN JUMPDEST PUSH2 0x91 PUSH1 0x4 DUP1 CALLDATASIZE SUB DUP2 ADD SWAP1 PUSH2 0x8C SWAP2 SWAP1 PUSH2 0x5C1 JUMP JUMPDEST PUSH2 0x205 JUMP JUMPDEST PUSH1 0x40 MLOAD PUSH2 0x9F SWAP3 SWAP2 SWAP1 PUSH2 0x6B2 JUMP JUMPDEST PUSH1 0x40 MLOAD DUP1 SWAP2 SUB SWAP1 RETURN JUMPDEST PUSH2 0xC2 PUSH1 0x4 DUP1 CALLDATASIZE SUB DUP2 ADD SWAP1 PUSH2 0xBD SWAP2 SWAP1 PUSH2 0x5EE JUMP JUMPDEST PUSH2 0x339 JUMP JUMPDEST STOP JUMPDEST PUSH1 0x1 PUSH1 0x20 MSTORE DUP2 PUSH1 0x0 MSTORE PUSH1 0x40 PUSH1 0x0 KECCAK256 PUSH1 0x20 MSTORE DUP1 PUSH1 0x0 MSTORE PUSH1 0x40 PUSH1 0x0 KECCAK256 PUSH1 0x0 SWAP2 POP SWAP2 POP POP DUP1 PUSH1 0x0 ADD DUP1 SLOAD PUSH2 0xF4 SWAP1 PUSH2 0x7D9 JUMP JUMPDEST DUP1 PUSH1 0x1F ADD PUSH1 0x20 DUP1 SWAP2 DIV MUL PUSH1 0x20 ADD PUSH1 0x40 MLOAD SWAP1 DUP2 ADD PUSH1 0x40 MSTORE DUP1 SWAP3 SWAP2 SWAP1 DUP2 DUP2 MSTORE PUSH1 0x20 ADD DUP3 DUP1 SLOAD PUSH2 0x120 SWAP1 PUSH2 0x7D9 JUMP JUMPDEST DUP1 ISZERO PUSH2 0x16D JUMPI DUP1 PUSH1 0x1F LT PUSH2 0x142 JUMPI PUSH2 0x100 DUP1 DUP4 SLOAD DIV MUL DUP4 MSTORE SWAP2 PUSH1 0x20 ADD SWAP2 PUSH2 0x16D JUMP JUMPDEST DUP3 ADD SWAP2 SWAP1 PUSH1 0x0 MSTORE PUSH1 0x20 PUSH1 0x0 KECCAK256 SWAP1 JUMPDEST DUP2 SLOAD DUP2 MSTORE SWAP1 PUSH1 0x1 ADD SWAP1 PUSH1 0x20 ADD DUP1 DUP4 GT PUSH2 0x150 JUMPI DUP3 SWAP1 SUB PUSH1 0x1F AND DUP3 ADD SWAP2 JUMPDEST POP POP POP POP POP SWAP1 DUP1 PUSH1 0x1 ADD DUP1 SLOAD PUSH2 0x182 SWAP1 PUSH2 0x7D9 JUMP JUMPDEST DUP1 PUSH1 0x1F ADD PUSH1 0x20 DUP1 SWAP2 DIV MUL PUSH1 0x20 ADD PUSH1 0x40 MLOAD SWAP1 DUP2 ADD PUSH1 0x40 MSTORE DUP1 SWAP3 SWAP2 SWAP1 DUP2 DUP2 MSTORE PUSH1 0x20 ADD DUP3 DUP1 SLOAD PUSH2 0x1AE SWAP1 PUSH2 0x7D9 JUMP JUMPDEST DUP1 ISZERO PUSH2 0x1FB JUMPI DUP1 PUSH1 0x1F LT PUSH2 0x1D0 JUMPI PUSH2 0x100 DUP1 DUP4 SLOAD DIV MUL DUP4 MSTORE SWAP2 PUSH1 0x20 ADD SWAP2 PUSH2 0x1FB JUMP JUMPDEST DUP3 ADD SWAP2 SWAP1 PUSH1 0x0 MSTORE PUSH1 0x20 PUSH1 0x0 KECCAK256 SWAP1 JUMPDEST DUP2 SLOAD DUP2 MSTORE SWAP1 PUSH1 0x1 ADD SWAP1 PUSH1 0x20 ADD DUP1 DUP4 GT PUSH2 0x1DE JUMPI DUP3 SWAP1 SUB PUSH1 0x1F AND DUP3 ADD SWAP2 JUMPDEST POP POP POP POP POP SWAP1 POP DUP3 JUMP JUMPDEST PUSH1 0x0 PUSH1 0x20 MSTORE DUP1 PUSH1 0x0 MSTORE PUSH1 0x40 PUSH1 0x0 KECCAK256 PUSH1 0x0 SWAP2 POP SWAP1 POP DUP1 PUSH1 0x0 ADD DUP1 SLOAD PUSH2 0x228 SWAP1 PUSH2 0x7D9 JUMP JUMPDEST DUP1 PUSH1 0x1F ADD PUSH1 0x20 DUP1 SWAP2 DIV MUL PUSH1 0x20 ADD PUSH1 0x40 MLOAD SWAP1 DUP2 ADD PUSH1 0x40 MSTORE DUP1 SWAP3 SWAP2 SWAP1 DUP2 DUP2 MSTORE PUSH1 0x20 ADD DUP3 DUP1 SLOAD PUSH2 0x254 SWAP1 PUSH2 0x7D9 JUMP JUMPDEST DUP1 ISZERO PUSH2 0x2A1 JUMPI DUP1 PUSH1 0x1F LT PUSH2 0x276 JUMPI PUSH2 0x100 DUP1 DUP4 SLOAD DIV MUL DUP4 MSTORE SWAP2 PUSH1 0x20 ADD SWAP2 PUSH2 0x2A1 JUMP JUMPDEST DUP3 ADD SWAP2 SWAP1 PUSH1 0x0 MSTORE PUSH1 0x20 PUSH1 0x0 KECCAK256 SWAP1 JUMPDEST DUP2 SLOAD DUP2 MSTORE SWAP1 PUSH1 0x1 ADD SWAP1 PUSH1 0x20 ADD DUP1 DUP4 GT PUSH2 0x284 JUMPI DUP3 SWAP1 SUB PUSH1 0x1F AND DUP3 ADD SWAP2 JUMPDEST POP POP POP POP POP SWAP1 DUP1 PUSH1 0x1 ADD DUP1 SLOAD PUSH2 0x2B6 SWAP1 PUSH2 0x7D9 JUMP JUMPDEST DUP1 PUSH1 0x1F ADD PUSH1 0x20 DUP1 SWAP2 DIV MUL PUSH1 0x20 ADD PUSH1 0x40 MLOAD SWAP1 DUP2 ADD PUSH1 0x40 MSTORE DUP1 SWAP3 SWAP2 SWAP1 DUP2 DUP2 MSTORE PUSH1 0x20 ADD DUP3 DUP1 SLOAD PUSH2 0x2E2 SWAP1 PUSH2 0x7D9 JUMP JUMPDEST DUP1 ISZERO PUSH2 0x32F JUMPI DUP1 PUSH1 0x1F LT PUSH2 0x304 JUMPI PUSH2 0x100 DUP1 DUP4 SLOAD DIV MUL DUP4 MSTORE SWAP2 PUSH1 0x20 ADD SWAP2 PUSH2 0x32F JUMP JUMPDEST DUP3 ADD SWAP2 SWAP1 PUSH1 0x0 MSTORE PUSH1 0x20 PUSH1 0x0 KECCAK256 SWAP1 JUMPDEST DUP2 SLOAD DUP2 MSTORE SWAP1 PUSH1 0x1 ADD SWAP1 PUSH1 0x20 ADD DUP1 DUP4 GT PUSH2 0x312 JUMPI DUP3 SWAP1 SUB PUSH1 0x1F AND DUP3 ADD SWAP2 JUMPDEST POP POP POP POP POP SWAP1 POP DUP3 JUMP JUMPDEST PUSH1 0x40 MLOAD DUP1 PUSH1 0x40 ADD PUSH1 0x40 MSTORE DUP1 DUP4 DUP2 MSTORE PUSH1 0x20 ADD DUP3 DUP2 MSTORE POP PUSH1 0x0 DUP1 DUP6 DUP2 MSTORE PUSH1 0x20 ADD SWAP1 DUP2 MSTORE PUSH1 0x20 ADD PUSH1 0x0 KECCAK256 PUSH1 0x0 DUP3 ADD MLOAD DUP2 PUSH1 0x0 ADD SWAP1 DUP1 MLOAD SWAP1 PUSH1 0x20 ADD SWAP1 PUSH2 0x37C SWAP3 SWAP2 SWAP1 PUSH2 0x444 JUMP JUMPDEST POP PUSH1 0x20 DUP3 ADD MLOAD DUP2 PUSH1 0x1 ADD SWAP1 DUP1 MLOAD SWAP1 PUSH1 0x20 ADD SWAP1 PUSH2 0x399 SWAP3 SWAP2 SWAP1 PUSH2 0x444 JUMP JUMPDEST POP SWAP1 POP POP PUSH1 0x40 MLOAD DUP1 PUSH1 0x40 ADD PUSH1 0x40 MSTORE DUP1 DUP4 DUP2 MSTORE PUSH1 0x20 ADD DUP3 DUP2 MSTORE POP PUSH1 0x1 PUSH1 0x0 CALLER PUSH20 0xFFFFFFFFFFFFFFFFFFFFFFFFFFFFFFFFFFFFFFFF AND PUSH20 0xFFFFFFFFFFFFFFFFFFFFFFFFFFFFFFFFFFFFFFFF AND DUP2 MSTORE PUSH1 0x20 ADD SWAP1 DUP2 MSTORE PUSH1 0x20 ADD PUSH1 0x0 KECCAK256 PUSH1 0x0 DUP6 DUP2 MSTORE PUSH1 0x20 ADD SWAP1 DUP2 MSTORE PUSH1 0x20 ADD PUSH1 0x0 KECCAK256 PUSH1 0x0 DUP3 ADD MLOAD DUP2 PUSH1 0x0 ADD SWAP1 DUP1 MLOAD SWAP1 PUSH1 0x20 ADD SWAP1 PUSH2 0x41E SWAP3 SWAP2 SWAP1 PUSH2 0x444 JUMP JUMPDEST POP PUSH1 0x20 DUP3 ADD MLOAD DUP2 PUSH1 0x1 ADD SWAP1 DUP1 MLOAD SWAP1 PUSH1 0x20 ADD SWAP1 PUSH2 0x43B SWAP3 SWAP2 SWAP1 PUSH2 0x444 JUMP JUMPDEST POP SWAP1 POP POP POP POP POP JUMP JUMPDEST DUP3 DUP1 SLOAD PUSH2 0x450 SWAP1 PUSH2 0x7D9 JUMP JUMPDEST SWAP1 PUSH1 0x0 MSTORE PUSH1 0x20 PUSH1 0x0 KECCAK256 SWAP1 PUSH1 0x1F ADD PUSH1 0x20 SWAP1 DIV DUP2 ADD SWAP3 DUP3 PUSH2 0x472 JUMPI PUSH1 0x0 DUP6 SSTORE PUSH2 0x4B9 JUMP JUMPDEST DUP3 PUSH1 0x1F LT PUSH2 0x48B JUMPI DUP1 MLOAD PUSH1 0xFF NOT AND DUP4 DUP1 ADD OR DUP6 SSTORE PUSH2 0x4B9 JUMP JUMPDEST DUP3 DUP1 ADD PUSH1 0x1 ADD DUP6 SSTORE DUP3 ISZERO PUSH2 0x4B9 JUMPI SWAP2 DUP3 ADD JUMPDEST DUP3 DUP2 GT ISZERO PUSH2 0x4B8 JUMPI DUP3 MLOAD DUP3 SSTORE SWAP2 PUSH1 0x20 ADD SWAP2 SWAP1 PUSH1 0x1 ADD SWAP1 PUSH2 0x49D JUMP JUMPDEST JUMPDEST POP SWAP1 POP PUSH2 0x4C6 SWAP2 SWAP1 PUSH2 0x4CA JUMP JUMPDEST POP SWAP1 JUMP JUMPDEST JUMPDEST DUP1 DUP3 GT ISZERO PUSH2 0x4E3 JUMPI PUSH1 0x0 DUP2 PUSH1 0x0 SWAP1 SSTORE POP PUSH1 0x1 ADD PUSH2 0x4CB JUMP JUMPDEST POP SWAP1 JUMP JUMPDEST PUSH1 0x0 PUSH2 0x4FA PUSH2 0x4F5 DUP5 PUSH2 0x70E JUMP JUMPDEST PUSH2 0x6E9 JUMP JUMPDEST SWAP1 POP DUP3 DUP2 MSTORE PUSH1 0x20 DUP2 ADD DUP5 DUP5 DUP5 ADD GT ISZERO PUSH2 0x516 JUMPI PUSH2 0x515 PUSH2 0x89F JUMP JUMPDEST JUMPDEST PUSH2 0x521 DUP5 DUP3 DUP6 PUSH2 0x797 JUMP JUMPDEST POP SWAP4 SWAP3 POP POP POP JUMP JUMPDEST PUSH1 0x0 DUP2 CALLDATALOAD SWAP1 POP PUSH2 0x538 DUP2 PUSH2 0x8BF JUMP JUMPDEST SWAP3 SWAP2 POP POP JUMP JUMPDEST PUSH1 0x0 DUP3 PUSH1 0x1F DUP4 ADD SLT PUSH2 0x553 JUMPI PUSH2 0x552 PUSH2 0x89A JUMP JUMPDEST JUMPDEST DUP2 CALLDATALOAD PUSH2 0x563 DUP5 DUP3 PUSH1 0x20 DUP7 ADD PUSH2 0x4E7 JUMP JUMPDEST SWAP2 POP POP SWAP3 SWAP2 POP POP JUMP JUMPDEST PUSH1 0x0 DUP2 CALLDATALOAD SWAP1 POP PUSH2 0x57B DUP2 PUSH2 0x8D6 JUMP JUMPDEST SWAP3 SWAP2 POP POP JUMP JUMPDEST PUSH1 0x0 DUP1 PUSH1 0x40 DUP4 DUP6 SUB SLT ISZERO PUSH2 0x598 JUMPI PUSH2 0x597 PUSH2 0x8A9 JUMP JUMPDEST JUMPDEST PUSH1 0x0 PUSH2 0x5A6 DUP6 DUP3 DUP7 ADD PUSH2 0x529 JUMP JUMPDEST SWAP3 POP POP PUSH1 0x20 PUSH2 0x5B7 DUP6 DUP3 DUP7 ADD PUSH2 0x56C JUMP JUMPDEST SWAP2 POP POP SWAP3 POP SWAP3 SWAP1 POP JUMP JUMPDEST PUSH1 0x0 PUSH1 0x20 DUP3 DUP5 SUB SLT ISZERO PUSH2 0x5D7 JUMPI PUSH2 0x5D6 PUSH2 0x8A9 JUMP JUMPDEST JUMPDEST PUSH1 0x0 PUSH2 0x5E5 DUP5 DUP3 DUP6 ADD PUSH2 0x56C JUMP JUMPDEST SWAP2 POP POP SWAP3 SWAP2 POP POP JUMP JUMPDEST PUSH1 0x0 DUP1 PUSH1 0x0 PUSH1 0x60 DUP5 DUP7 SUB SLT ISZERO PUSH2 0x607 JUMPI PUSH2 0x606 PUSH2 0x8A9 JUMP JUMPDEST JUMPDEST PUSH1 0x0 PUSH2 0x615 DUP7 DUP3 DUP8 ADD PUSH2 0x56C JUMP JUMPDEST SWAP4 POP POP PUSH1 0x20 DUP5 ADD CALLDATALOAD PUSH8 0xFFFFFFFFFFFFFFFF DUP2 GT ISZERO PUSH2 0x636 JUMPI PUSH2 0x635 PUSH2 0x8A4 JUMP JUMPDEST JUMPDEST PUSH2 0x642 DUP7 DUP3 DUP8 ADD PUSH2 0x53E JUMP JUMPDEST SWAP3 POP POP PUSH1 0x40 DUP5 ADD CALLDATALOAD PUSH8 0xFFFFFFFFFFFFFFFF DUP2 GT ISZERO PUSH2 0x663 JUMPI PUSH2 0x662 PUSH2 0x8A4 JUMP JUMPDEST JUMPDEST PUSH2 0x66F DUP7 DUP3 DUP8 ADD PUSH2 0x53E JUMP JUMPDEST SWAP2 POP POP SWAP3 POP SWAP3 POP SWAP3 JUMP JUMPDEST PUSH1 0x0 PUSH2 0x684 DUP3 PUSH2 0x73F JUMP JUMPDEST PUSH2 0x68E DUP2 DUP6 PUSH2 0x74A JUMP JUMPDEST SWAP4 POP PUSH2 0x69E DUP2 DUP6 PUSH1 0x20 DUP7 ADD PUSH2 0x7A6 JUMP JUMPDEST PUSH2 0x6A7 DUP2 PUSH2 0x8AE JUMP JUMPDEST DUP5 ADD SWAP2 POP POP SWAP3 SWAP2 POP POP JUMP JUMPDEST PUSH1 0x0 PUSH1 0x40 DUP3 ADD SWAP1 POP DUP2 DUP2 SUB PUSH1 0x0 DUP4 ADD MSTORE PUSH2 0x6CC DUP2 DUP6 PUSH2 0x679 JUMP JUMPDEST SWAP1 POP DUP2 DUP2 SUB PUSH1 0x20 DUP4 ADD MSTORE PUSH2 0x6E0 DUP2 DUP5 PUSH2 0x679 JUMP JUMPDEST SWAP1 POP SWAP4 SWAP3 POP POP POP JUMP JUMPDEST PUSH1 0x0 PUSH2 0x6F3 PUSH2 0x704 JUMP JUMPDEST SWAP1 POP PUSH2 0x6FF DUP3 DUP3 PUSH2 0x80B JUMP JUMPDEST SWAP2 SWAP1 POP JUMP JUMPDEST PUSH1 0x0 PUSH1 0x40 MLOAD SWAP1 POP SWAP1 JUMP JUMPDEST PUSH1 0x0 PUSH8 0xFFFFFFFFFFFFFFFF DUP3 GT ISZERO PUSH2 0x729 JUMPI PUSH2 0x728 PUSH2 0x86B JUMP JUMPDEST JUMPDEST PUSH2 0x732 DUP3 PUSH2 0x8AE JUMP JUMPDEST SWAP1 POP PUSH1 0x20 DUP2 ADD SWAP1 POP SWAP2 SWAP1 POP JUMP JUMPDEST PUSH1 0x0 DUP2 MLOAD SWAP1 POP SWAP2 SWAP1 POP JUMP JUMPDEST PUSH1 0x0 DUP3 DUP3 MSTORE PUSH1 0x20 DUP3 ADD SWAP1 POP SWAP3 SWAP2 POP POP JUMP JUMPDEST PUSH1 0x0 PUSH2 0x766 DUP3 PUSH2 0x76D JUMP JUMPDEST SWAP1 POP SWAP2 SWAP1 POP JUMP JUMPDEST PUSH1 0x0 PUSH20 0xFFFFFFFFFFFFFFFFFFFFFFFFFFFFFFFFFFFFFFFF DUP3 AND SWAP1 POP SWAP2 SWAP1 POP JUMP JUMPDEST PUSH1 0x0 DUP2 SWAP1 POP SWAP2 SWAP1 POP JUMP JUMPDEST DUP3 DUP2 DUP4 CALLDATACOPY PUSH1 0x0 DUP4 DUP4 ADD MSTORE POP POP POP JUMP JUMPDEST PUSH1 0x0 JUMPDEST DUP4 DUP2 LT ISZERO PUSH2 0x7C4 JUMPI DUP1 DUP3 ADD MLOAD DUP2 DUP5 ADD MSTORE PUSH1 0x20 DUP2 ADD SWAP1 POP PUSH2 0x7A9 JUMP JUMPDEST DUP4 DUP2 GT ISZERO PUSH2 0x7D3 JUMPI PUSH1 0x0 DUP5 DUP5 ADD MSTORE JUMPDEST POP POP POP POP JUMP JUMPDEST PUSH1 0x0 PUSH1 0x2 DUP3 DIV SWAP1 POP PUSH1 0x1 DUP3 AND DUP1 PUSH2 0x7F1 JUMPI PUSH1 0x7F DUP3 AND SWAP2 POP JUMPDEST PUSH1 0x20 DUP3 LT DUP2 EQ ISZERO PUSH2 0x805 JUMPI PUSH2 0x804 PUSH2 0x83C JUMP JUMPDEST JUMPDEST POP SWAP2 SWAP1 POP JUMP JUMPDEST PUSH2 0x814 DUP3 PUSH2 0x8AE JUMP JUMPDEST DUP2 ADD DUP2 DUP2 LT PUSH8 0xFFFFFFFFFFFFFFFF DUP3 GT OR ISZERO PUSH2 0x833 JUMPI PUSH2 0x832 PUSH2 0x86B JUMP JUMPDEST JUMPDEST DUP1 PUSH1 0x40 MSTORE POP POP POP JUMP JUMPDEST PUSH32 0x4E487B7100000000000000000000000000000000000000000000000000000000 PUSH1 0x0 MSTORE PUSH1 0x22 PUSH1 0x4 MSTORE PUSH1 0x24 PUSH1 0x0 REVERT JUMPDEST PUSH32 0x4E487B7100000000000000000000000000000000000000000000000000000000 PUSH1 0x0 MSTORE PUSH1 0x41 PUSH1 0x4 MSTORE PUSH1 0x24 PUSH1 0x0 REVERT JUMPDEST PUSH1 0x0 DUP1 REVERT JUMPDEST PUSH1 0x0 DUP1 REVERT JUMPDEST PUSH1 0x0 DUP1 REVERT JUMPDEST PUSH1 0x0 DUP1 REVERT JUMPDEST PUSH1 0x0 PUSH1 0x1F NOT PUSH1 0x1F DUP4 ADD AND SWAP1 POP SWAP2 SWAP1 POP JUMP JUMPDEST PUSH2 0x8C8 DUP2 PUSH2 0x75B JUMP JUMPDEST DUP2 EQ PUSH2 0x8D3 JUMPI PUSH1 0x0 DUP1 REVERT JUMPDEST POP JUMP JUMPDEST PUSH2 0x8DF DUP2 PUSH2 0x78D JUMP JUMPDEST DUP2 EQ PUSH2 0x8EA JUMPI PUSH1 0x0 DUP1 REVERT JUMPDEST POP JUMP INVALID LOG2 PUSH5 0x6970667358 0x22 SLT KECCAK256 BASEFEE 0xAA 0xD8 SELFBALANCE CODESIZE DIFFICULTY 0xF8 0x2C DUP5 DUP10 0xC PUSH19 0x461886A636A99C499AF4F46206240752173D21 JUMPI PUSH5 0x736F6C6343 STOP ADDMOD SMOD STOP CALLER "
		},
		"gasEstimates": {
			"creation": {
				"codeDepositCost": "467800",
				"executionCost": "505",
				"totalCost": "468305"
			},
			"external": {
				"addMovie(uint256,string,string)": "infinite",
				"movie(uint256)": "infinite",
				"myMovie(address,uint256)": "infinite"
			}
		},
		"methodIdentifiers": {
			"addMovie(uint256,string,string)": "f40f48c9",
			"movie(uint256)": "d87ec417",
			"myMovie(address,uint256)": "11f72990"
		}
	},
	"abi": [
		{
			"inputs": [
				{
					"internalType": "uint256",
					"name": "_id",
					"type": "uint256"
				},
				{
					"internalType": "string",
					"name": "_title",
					"type": "string"
				},
				{
					"internalType": "string",
					"name": "_director",
					"type": "string"
				}
			],
			"name": "addMovie",
			"outputs": [],
			"stateMutability": "nonpayable",
			"type": "function"
		},
		{
			"inputs": [
				{
					"internalType": "uint256",
					"name": "",
					"type": "uint256"
				}
			],
			"name": "movie",
			"outputs": [
				{
					"internalType": "string",
					"name": "title",
					"type": "string"
				},
				{
					"internalType": "string",
					"name": "director",
					"type": "string"
				}
			],
			"stateMutability": "view",
			"type": "function"
		},
		{
			"inputs": [
				{
					"internalType": "address",
					"name": "",
					"type": "address"
				},
				{
					"internalType": "uint256",
					"name": "",
					"type": "uint256"
				}
			],
			"name": "myMovie",
			"outputs": [
				{
					"internalType": "string",
					"name": "title",
					"type": "string"
				},
				{
					"internalType": "string",
					"name": "director",
					"type": "string"
				}
			],
			"stateMutability": "view",
			"type": "function"
		}
	]
}