{
	"data": {
		"bytecode": {
			"linkReferences": {},
			"object": "608060405234801561001057600080fd5b5061017c806100206000396000f3fe608060405234801561001057600080fd5b50600436106100365760003560e01c80633f4263ef1461003b578063903db10614610057575b600080fd5b610055600480360381019061005091906100d0565b610073565b005b610071600480360381019061006c91906100a3565b610076565b005b50565b50565b60008135905061008881610118565b92915050565b60008135905061009d8161012f565b92915050565b6000602082840312156100b9576100b8610113565b5b60006100c784828501610079565b91505092915050565b6000602082840312156100e6576100e5610113565b5b60006100f48482850161008e565b91505092915050565b60008115159050919050565b6000819050919050565b600080fd5b610121816100fd565b811461012c57600080fd5b50565b61013881610109565b811461014357600080fd5b5056fea26469706673582212204f984701e9f974d1ef6a90c8134b69cff1961e210d458a30b7a73b2d92f4aaf764736f6c63430008070033",
			"opcodes": "PUSH1 0x80 PUSH1 0x40 MSTORE CALLVALUE DUP1 ISZERO PUSH2 0x10 JUMPI PUSH1 0x0 DUP1 REVERT JUMPDEST POP PUSH2 0x17C DUP1 PUSH2 0x20 PUSH1 0x0 CODECOPY PUSH1 0x0 RETURN INVALID PUSH1 0x80 PUSH1 0x40 MSTORE CALLVALUE DUP1 ISZERO PUSH2 0x10 JUMPI PUSH1 0x0 DUP1 REVERT JUMPDEST POP PUSH1 0x4 CALLDATASIZE LT PUSH2 0x36 JUMPI PUSH1 0x0 CALLDATALOAD PUSH1 0xE0 SHR DUP1 PUSH4 0x3F4263EF EQ PUSH2 0x3B JUMPI DUP1 PUSH4 0x903DB106 EQ PUSH2 0x57 JUMPI JUMPDEST PUSH1 0x0 DUP1 REVERT JUMPDEST PUSH2 0x55 PUSH1 0x4 DUP1 CALLDATASIZE SUB DUP2 ADD SWAP1 PUSH2 0x50 SWAP2 SWAP1 PUSH2 0xD0 JUMP JUMPDEST PUSH2 0x73 JUMP JUMPDEST STOP JUMPDEST PUSH2 0x71 PUSH1 0x4 DUP1 CALLDATASIZE SUB DUP2 ADD SWAP1 PUSH2 0x6C SWAP2 SWAP1 PUSH2 0xA3 JUMP JUMPDEST PUSH2 0x76 JUMP JUMPDEST STOP JUMPDEST POP JUMP JUMPDEST POP JUMP JUMPDEST PUSH1 0x0 DUP2 CALLDATALOAD SWAP1 POP PUSH2 0x88 DUP2 PUSH2 0x118 JUMP JUMPDEST SWAP3 SWAP2 POP POP JUMP JUMPDEST PUSH1 0x0 DUP2 CALLDATALOAD SWAP1 POP PUSH2 0x9D DUP2 PUSH2 0x12F JUMP JUMPDEST SWAP3 SWAP2 POP POP JUMP JUMPDEST PUSH1 0x0 PUSH1 0x20 DUP3 DUP5 SUB SLT ISZERO PUSH2 0xB9 JUMPI PUSH2 0xB8 PUSH2 0x113 JUMP JUMPDEST JUMPDEST PUSH1 0x0 PUSH2 0xC7 DUP5 DUP3 DUP6 ADD PUSH2 0x79 JUMP JUMPDEST SWAP2 POP POP SWAP3 SWAP2 POP POP JUMP JUMPDEST PUSH1 0x0 PUSH1 0x20 DUP3 DUP5 SUB SLT ISZERO PUSH2 0xE6 JUMPI PUSH2 0xE5 PUSH2 0x113 JUMP JUMPDEST JUMPDEST PUSH1 0x0 PUSH2 0xF4 DUP5 DUP3 DUP6 ADD PUSH2 0x8E JUMP JUMPDEST SWAP2 POP POP SWAP3 SWAP2 POP POP JUMP JUMPDEST PUSH1 0x0 DUP2 ISZERO ISZERO SWAP1 POP SWAP2 SWAP1 POP JUMP JUMPDEST PUSH1 0x0 DUP2 SWAP1 POP SWAP2 SWAP1 POP JUMP JUMPDEST PUSH1 0x0 DUP1 REVERT JUMPDEST PUSH2 0x121 DUP2 PUSH2 0xFD JUMP JUMPDEST DUP2 EQ PUSH2 0x12C JUMPI PUSH1 0x0 DUP1 REVERT JUMPDEST POP JUMP JUMPDEST PUSH2 0x138 DUP2 PUSH2 0x109 JUMP JUMPDEST DUP2 EQ PUSH2 0x143 JUMPI PUSH1 0x0 DUP1 REVERT JUMPDEST POP JUMP INVALID LOG2 PUSH5 0x6970667358 0x22 SLT KECCAK256 0x4F SWAP9 SELFBALANCE ADD 0xE9 0xF9 PUSH21 0xD1EF6A90C8134B69CFF1961E210D458A30B7A73B2D SWAP3 DELEGATECALL 0xAA 0xF7 PUSH5 0x736F6C6343 STOP ADDMOD SMOD STOP CALLER "
		},
		"gasEstimates": {
			"creation": {
				"codeDepositCost": "76000",
				"executionCost": "123",
				"totalCost": "76123"
			},
			"external": {
				"x(bool)": "412",
				"x(uint256)": "384"
			}
		},
		"methodIdentifiers": {
			"x(bool)": "903db106",
			"x(uint256)": "3f4263ef"
		}
	},
	"abi": [
		{
			"inputs": [
				{
					"internalType": "uint256",
					"name": "wallet",
					"type": "uint256"
				}
			],
			"name": "x",
			"outputs": [],
			"stateMutability": "nonpayable",
			"type": "function"
		},
		{
			"inputs": [
				{
					"internalType": "bool",
					"name": "lightswitch",
					"type": "bool"
				}
			],
			"name": "x",
			"outputs": [],
			"stateMutability": "nonpayable",
			"type": "function"
		}
	]
}