{
	"data": {
		"bytecode": {
			"linkReferences": {},
			"object": "60806040526004600055600560015534801561001a57600080fd5b506101778061002a6000396000f3fe608060405234801561001057600080fd5b506004361061002b5760003560e01c8063d7dfa0dd14610030575b600080fd5b61003861004e565b6040516100459190610097565b60405180910390f35b60008060009050600154600054108061006957506004600054145b156100815760015460005461007e91906100b2565b90505b8091505090565b61009181610108565b82525050565b60006020820190506100ac6000830184610088565b92915050565b60006100bd82610108565b91506100c883610108565b9250827fffffffffffffffffffffffffffffffffffffffffffffffffffffffffffffffff038211156100fd576100fc610112565b5b828201905092915050565b6000819050919050565b7f4e487b7100000000000000000000000000000000000000000000000000000000600052601160045260246000fdfea2646970667358221220220852c1b4de907263b6fa782d370bca13da8ed373907cc79962318ee662eb3664736f6c63430008070033",
			"opcodes": "PUSH1 0x80 PUSH1 0x40 MSTORE PUSH1 0x4 PUSH1 0x0 SSTORE PUSH1 0x5 PUSH1 0x1 SSTORE CALLVALUE DUP1 ISZERO PUSH2 0x1A JUMPI PUSH1 0x0 DUP1 REVERT JUMPDEST POP PUSH2 0x177 DUP1 PUSH2 0x2A PUSH1 0x0 CODECOPY PUSH1 0x0 RETURN INVALID PUSH1 0x80 PUSH1 0x40 MSTORE CALLVALUE DUP1 ISZERO PUSH2 0x10 JUMPI PUSH1 0x0 DUP1 REVERT JUMPDEST POP PUSH1 0x4 CALLDATASIZE LT PUSH2 0x2B JUMPI PUSH1 0x0 CALLDATALOAD PUSH1 0xE0 SHR DUP1 PUSH4 0xD7DFA0DD EQ PUSH2 0x30 JUMPI JUMPDEST PUSH1 0x0 DUP1 REVERT JUMPDEST PUSH2 0x38 PUSH2 0x4E JUMP JUMPDEST PUSH1 0x40 MLOAD PUSH2 0x45 SWAP2 SWAP1 PUSH2 0x97 JUMP JUMPDEST PUSH1 0x40 MLOAD DUP1 SWAP2 SUB SWAP1 RETURN JUMPDEST PUSH1 0x0 DUP1 PUSH1 0x0 SWAP1 POP PUSH1 0x1 SLOAD PUSH1 0x0 SLOAD LT DUP1 PUSH2 0x69 JUMPI POP PUSH1 0x4 PUSH1 0x0 SLOAD EQ JUMPDEST ISZERO PUSH2 0x81 JUMPI PUSH1 0x1 SLOAD PUSH1 0x0 SLOAD PUSH2 0x7E SWAP2 SWAP1 PUSH2 0xB2 JUMP JUMPDEST SWAP1 POP JUMPDEST DUP1 SWAP2 POP POP SWAP1 JUMP JUMPDEST PUSH2 0x91 DUP2 PUSH2 0x108 JUMP JUMPDEST DUP3 MSTORE POP POP JUMP JUMPDEST PUSH1 0x0 PUSH1 0x20 DUP3 ADD SWAP1 POP PUSH2 0xAC PUSH1 0x0 DUP4 ADD DUP5 PUSH2 0x88 JUMP JUMPDEST SWAP3 SWAP2 POP POP JUMP JUMPDEST PUSH1 0x0 PUSH2 0xBD DUP3 PUSH2 0x108 JUMP JUMPDEST SWAP2 POP PUSH2 0xC8 DUP4 PUSH2 0x108 JUMP JUMPDEST SWAP3 POP DUP3 PUSH32 0xFFFFFFFFFFFFFFFFFFFFFFFFFFFFFFFFFFFFFFFFFFFFFFFFFFFFFFFFFFFFFFFF SUB DUP3 GT ISZERO PUSH2 0xFD JUMPI PUSH2 0xFC PUSH2 0x112 JUMP JUMPDEST JUMPDEST DUP3 DUP3 ADD SWAP1 POP SWAP3 SWAP2 POP POP JUMP JUMPDEST PUSH1 0x0 DUP2 SWAP1 POP SWAP2 SWAP1 POP JUMP JUMPDEST PUSH32 0x4E487B7100000000000000000000000000000000000000000000000000000000 PUSH1 0x0 MSTORE PUSH1 0x11 PUSH1 0x4 MSTORE PUSH1 0x24 PUSH1 0x0 REVERT INVALID LOG2 PUSH5 0x6970667358 0x22 SLT KECCAK256 0x22 ADDMOD MSTORE 0xC1 0xB4 0xDE SWAP1 PUSH19 0x63B6FA782D370BCA13DA8ED373907CC7996231 DUP15 0xE6 PUSH3 0xEB3664 PUSH20 0x6F6C634300080700330000000000000000000000 "
		},
		"gasEstimates": {
			"creation": {
				"codeDepositCost": "75000",
				"executionCost": "44335",
				"totalCost": "119335"
			},
			"external": {
				"logic()": "infinite"
			}
		},
		"methodIdentifiers": {
			"logic()": "d7dfa0dd"
		}
	},
	"abi": [
		{
			"inputs": [],
			"name": "logic",
			"outputs": [
				{
					"internalType": "uint256",
					"name": "",
					"type": "uint256"
				}
			],
			"stateMutability": "view",
			"type": "function"
		}
	]
}