{
	"data": {
		"bytecode": {
			"linkReferences": {},
			"object": "608060405260016000806101000a81548160ff02191690831515021790555060008060016101000a81548160ff021916908315150217905550600060015534801561004957600080fd5b506104c8806100596000396000f3fe608060405234801561001057600080fd5b506004361061007d5760003560e01c8063ab02dd7b1161005b578063ab02dd7b146100b4578063c000dcdb146100d2578063e472c67c146100dc578063ebaf0dca146100e65761007d565b806321fed83114610082578063849142621461008c578063911ec8f5146100aa575b600080fd5b61008a610104565b005b61009461017b565b6040516100a191906102c9565b60405180910390f35b6100b261018e565b005b6100bc6101a4565b6040516100c991906102c9565b60405180910390f35b6100da6101b5565b005b6100e46101de565b005b6100ee61025b565b6040516100fb9190610324565b60405180910390f35b6000151560008054906101000a900460ff161515141561013e576001600060016101000a81548160ff021916908315150217905550610179565b6040517f08c379a000000000000000000000000000000000000000000000000000000000815260040161017090610304565b60405180910390fd5b565b600060019054906101000a900460ff1681565b600660015414156101a2576101a16103bc565b5b565b60008054906101000a900460ff1681565b60008054906101000a900460ff16156000806101000a81548160ff021916908315150217905550565b60008054906101000a900460ff1661022b576040517f08c379a0000000000000000000000000000000000000000000000000000000008152600401610222906102e4565b60405180910390fd5b60036001600082825461023e9190610350565b9250508190555060066001541415610259576102586103bc565b5b565b6000600154905090565b61026e816103a6565b82525050565b600061028160168361033f565b915061028c8261041a565b602082019050919050565b60006102a460218361033f565b91506102af82610443565b604082019050919050565b6102c3816103b2565b82525050565b60006020820190506102de6000830184610265565b92915050565b600060208201905081810360008301526102fd81610274565b9050919050565b6000602082019050818103600083015261031d81610297565b9050919050565b600060208201905061033960008301846102ba565b92915050565b600082825260208201905092915050565b600061035b826103b2565b9150610366836103b2565b9250827fffffffffffffffffffffffffffffffffffffffffffffffffffffffffffffffff0382111561039b5761039a6103eb565b5b828201905092915050565b60008115159050919050565b6000819050919050565b7f4e487b7100000000000000000000000000000000000000000000000000000000600052600160045260246000fd5b7f4e487b7100000000000000000000000000000000000000000000000000000000600052601160045260246000fd5b7f4974206973206e6f742073756e6e7920746f6461792100000000000000000000600082015250565b7f4e6f206e65656420746f206272696e6720616e20756d6272656c6120746f646160008201527f790000000000000000000000000000000000000000000000000000000000000060208201525056fea2646970667358221220c38762095bfb386cfeb5a783035fb3355d9337ca6ec828b4fb226592f8adeff164736f6c63430008070033",
			"opcodes": "PUSH1 0x80 PUSH1 0x40 MSTORE PUSH1 0x1 PUSH1 0x0 DUP1 PUSH2 0x100 EXP DUP2 SLOAD DUP2 PUSH1 0xFF MUL NOT AND SWAP1 DUP4 ISZERO ISZERO MUL OR SWAP1 SSTORE POP PUSH1 0x0 DUP1 PUSH1 0x1 PUSH2 0x100 EXP DUP2 SLOAD DUP2 PUSH1 0xFF MUL NOT AND SWAP1 DUP4 ISZERO ISZERO MUL OR SWAP1 SSTORE POP PUSH1 0x0 PUSH1 0x1 SSTORE CALLVALUE DUP1 ISZERO PUSH2 0x49 JUMPI PUSH1 0x0 DUP1 REVERT JUMPDEST POP PUSH2 0x4C8 DUP1 PUSH2 0x59 PUSH1 0x0 CODECOPY PUSH1 0x0 RETURN INVALID PUSH1 0x80 PUSH1 0x40 MSTORE CALLVALUE DUP1 ISZERO PUSH2 0x10 JUMPI PUSH1 0x0 DUP1 REVERT JUMPDEST POP PUSH1 0x4 CALLDATASIZE LT PUSH2 0x7D JUMPI PUSH1 0x0 CALLDATALOAD PUSH1 0xE0 SHR DUP1 PUSH4 0xAB02DD7B GT PUSH2 0x5B JUMPI DUP1 PUSH4 0xAB02DD7B EQ PUSH2 0xB4 JUMPI DUP1 PUSH4 0xC000DCDB EQ PUSH2 0xD2 JUMPI DUP1 PUSH4 0xE472C67C EQ PUSH2 0xDC JUMPI DUP1 PUSH4 0xEBAF0DCA EQ PUSH2 0xE6 JUMPI PUSH2 0x7D JUMP JUMPDEST DUP1 PUSH4 0x21FED831 EQ PUSH2 0x82 JUMPI DUP1 PUSH4 0x84914262 EQ PUSH2 0x8C JUMPI DUP1 PUSH4 0x911EC8F5 EQ PUSH2 0xAA JUMPI JUMPDEST PUSH1 0x0 DUP1 REVERT JUMPDEST PUSH2 0x8A PUSH2 0x104 JUMP JUMPDEST STOP JUMPDEST PUSH2 0x94 PUSH2 0x17B JUMP JUMPDEST PUSH1 0x40 MLOAD PUSH2 0xA1 SWAP2 SWAP1 PUSH2 0x2C9 JUMP JUMPDEST PUSH1 0x40 MLOAD DUP1 SWAP2 SUB SWAP1 RETURN JUMPDEST PUSH2 0xB2 PUSH2 0x18E JUMP JUMPDEST STOP JUMPDEST PUSH2 0xBC PUSH2 0x1A4 JUMP JUMPDEST PUSH1 0x40 MLOAD PUSH2 0xC9 SWAP2 SWAP1 PUSH2 0x2C9 JUMP JUMPDEST PUSH1 0x40 MLOAD DUP1 SWAP2 SUB SWAP1 RETURN JUMPDEST PUSH2 0xDA PUSH2 0x1B5 JUMP JUMPDEST STOP JUMPDEST PUSH2 0xE4 PUSH2 0x1DE JUMP JUMPDEST STOP JUMPDEST PUSH2 0xEE PUSH2 0x25B JUMP JUMPDEST PUSH1 0x40 MLOAD PUSH2 0xFB SWAP2 SWAP1 PUSH2 0x324 JUMP JUMPDEST PUSH1 0x40 MLOAD DUP1 SWAP2 SUB SWAP1 RETURN JUMPDEST PUSH1 0x0 ISZERO ISZERO PUSH1 0x0 DUP1 SLOAD SWAP1 PUSH2 0x100 EXP SWAP1 DIV PUSH1 0xFF AND ISZERO ISZERO EQ ISZERO PUSH2 0x13E JUMPI PUSH1 0x1 PUSH1 0x0 PUSH1 0x1 PUSH2 0x100 EXP DUP2 SLOAD DUP2 PUSH1 0xFF MUL NOT AND SWAP1 DUP4 ISZERO ISZERO MUL OR SWAP1 SSTORE POP PUSH2 0x179 JUMP JUMPDEST PUSH1 0x40 MLOAD PUSH32 0x8C379A000000000000000000000000000000000000000000000000000000000 DUP2 MSTORE PUSH1 0x4 ADD PUSH2 0x170 SWAP1 PUSH2 0x304 JUMP JUMPDEST PUSH1 0x40 MLOAD DUP1 SWAP2 SUB SWAP1 REVERT JUMPDEST JUMP JUMPDEST PUSH1 0x0 PUSH1 0x1 SWAP1 SLOAD SWAP1 PUSH2 0x100 EXP SWAP1 DIV PUSH1 0xFF AND DUP2 JUMP JUMPDEST PUSH1 0x6 PUSH1 0x1 SLOAD EQ ISZERO PUSH2 0x1A2 JUMPI PUSH2 0x1A1 PUSH2 0x3BC JUMP JUMPDEST JUMPDEST JUMP JUMPDEST PUSH1 0x0 DUP1 SLOAD SWAP1 PUSH2 0x100 EXP SWAP1 DIV PUSH1 0xFF AND DUP2 JUMP JUMPDEST PUSH1 0x0 DUP1 SLOAD SWAP1 PUSH2 0x100 EXP SWAP1 DIV PUSH1 0xFF AND ISZERO PUSH1 0x0 DUP1 PUSH2 0x100 EXP DUP2 SLOAD DUP2 PUSH1 0xFF MUL NOT AND SWAP1 DUP4 ISZERO ISZERO MUL OR SWAP1 SSTORE POP JUMP JUMPDEST PUSH1 0x0 DUP1 SLOAD SWAP1 PUSH2 0x100 EXP SWAP1 DIV PUSH1 0xFF AND PUSH2 0x22B JUMPI PUSH1 0x40 MLOAD PUSH32 0x8C379A000000000000000000000000000000000000000000000000000000000 DUP2 MSTORE PUSH1 0x4 ADD PUSH2 0x222 SWAP1 PUSH2 0x2E4 JUMP JUMPDEST PUSH1 0x40 MLOAD DUP1 SWAP2 SUB SWAP1 REVERT JUMPDEST PUSH1 0x3 PUSH1 0x1 PUSH1 0x0 DUP3 DUP3 SLOAD PUSH2 0x23E SWAP2 SWAP1 PUSH2 0x350 JUMP JUMPDEST SWAP3 POP POP DUP2 SWAP1 SSTORE POP PUSH1 0x6 PUSH1 0x1 SLOAD EQ ISZERO PUSH2 0x259 JUMPI PUSH2 0x258 PUSH2 0x3BC JUMP JUMPDEST JUMPDEST JUMP JUMPDEST PUSH1 0x0 PUSH1 0x1 SLOAD SWAP1 POP SWAP1 JUMP JUMPDEST PUSH2 0x26E DUP2 PUSH2 0x3A6 JUMP JUMPDEST DUP3 MSTORE POP POP JUMP JUMPDEST PUSH1 0x0 PUSH2 0x281 PUSH1 0x16 DUP4 PUSH2 0x33F JUMP JUMPDEST SWAP2 POP PUSH2 0x28C DUP3 PUSH2 0x41A JUMP JUMPDEST PUSH1 0x20 DUP3 ADD SWAP1 POP SWAP2 SWAP1 POP JUMP JUMPDEST PUSH1 0x0 PUSH2 0x2A4 PUSH1 0x21 DUP4 PUSH2 0x33F JUMP JUMPDEST SWAP2 POP PUSH2 0x2AF DUP3 PUSH2 0x443 JUMP JUMPDEST PUSH1 0x40 DUP3 ADD SWAP1 POP SWAP2 SWAP1 POP JUMP JUMPDEST PUSH2 0x2C3 DUP2 PUSH2 0x3B2 JUMP JUMPDEST DUP3 MSTORE POP POP JUMP JUMPDEST PUSH1 0x0 PUSH1 0x20 DUP3 ADD SWAP1 POP PUSH2 0x2DE PUSH1 0x0 DUP4 ADD DUP5 PUSH2 0x265 JUMP JUMPDEST SWAP3 SWAP2 POP POP JUMP JUMPDEST PUSH1 0x0 PUSH1 0x20 DUP3 ADD SWAP1 POP DUP2 DUP2 SUB PUSH1 0x0 DUP4 ADD MSTORE PUSH2 0x2FD DUP2 PUSH2 0x274 JUMP JUMPDEST SWAP1 POP SWAP2 SWAP1 POP JUMP JUMPDEST PUSH1 0x0 PUSH1 0x20 DUP3 ADD SWAP1 POP DUP2 DUP2 SUB PUSH1 0x0 DUP4 ADD MSTORE PUSH2 0x31D DUP2 PUSH2 0x297 JUMP JUMPDEST SWAP1 POP SWAP2 SWAP1 POP JUMP JUMPDEST PUSH1 0x0 PUSH1 0x20 DUP3 ADD SWAP1 POP PUSH2 0x339 PUSH1 0x0 DUP4 ADD DUP5 PUSH2 0x2BA JUMP JUMPDEST SWAP3 SWAP2 POP POP JUMP JUMPDEST PUSH1 0x0 DUP3 DUP3 MSTORE PUSH1 0x20 DUP3 ADD SWAP1 POP SWAP3 SWAP2 POP POP JUMP JUMPDEST PUSH1 0x0 PUSH2 0x35B DUP3 PUSH2 0x3B2 JUMP JUMPDEST SWAP2 POP PUSH2 0x366 DUP4 PUSH2 0x3B2 JUMP JUMPDEST SWAP3 POP DUP3 PUSH32 0xFFFFFFFFFFFFFFFFFFFFFFFFFFFFFFFFFFFFFFFFFFFFFFFFFFFFFFFFFFFFFFFF SUB DUP3 GT ISZERO PUSH2 0x39B JUMPI PUSH2 0x39A PUSH2 0x3EB JUMP JUMPDEST JUMPDEST DUP3 DUP3 ADD SWAP1 POP SWAP3 SWAP2 POP POP JUMP JUMPDEST PUSH1 0x0 DUP2 ISZERO ISZERO SWAP1 POP SWAP2 SWAP1 POP JUMP JUMPDEST PUSH1 0x0 DUP2 SWAP1 POP SWAP2 SWAP1 POP JUMP JUMPDEST PUSH32 0x4E487B7100000000000000000000000000000000000000000000000000000000 PUSH1 0x0 MSTORE PUSH1 0x1 PUSH1 0x4 MSTORE PUSH1 0x24 PUSH1 0x0 REVERT JUMPDEST PUSH32 0x4E487B7100000000000000000000000000000000000000000000000000000000 PUSH1 0x0 MSTORE PUSH1 0x11 PUSH1 0x4 MSTORE PUSH1 0x24 PUSH1 0x0 REVERT JUMPDEST PUSH32 0x4974206973206E6F742073756E6E7920746F6461792100000000000000000000 PUSH1 0x0 DUP3 ADD MSTORE POP JUMP JUMPDEST PUSH32 0x4E6F206E65656420746F206272696E6720616E20756D6272656C6120746F6461 PUSH1 0x0 DUP3 ADD MSTORE PUSH32 0x7900000000000000000000000000000000000000000000000000000000000000 PUSH1 0x20 DUP3 ADD MSTORE POP JUMP INVALID LOG2 PUSH5 0x6970667358 0x22 SLT KECCAK256 0xC3 DUP8 PUSH3 0x95BFB CODESIZE PUSH13 0xFEB5A783035FB3355D9337CA6E 0xC8 0x28 0xB4 0xFB 0x22 PUSH6 0x92F8ADEFF164 PUSH20 0x6F6C634300080700330000000000000000000000 "
		},
		"gasEstimates": {
			"creation": {
				"codeDepositCost": "244800",
				"executionCost": "53877",
				"totalCost": "298677"
			},
			"external": {
				"bringUmberlla()": "26644",
				"getCalc()": "2503",
				"internalTestUnits()": "2344",
				"solarCalc()": "infinite",
				"sunny()": "2468",
				"umbrella()": "2544",
				"weatherChanger()": "26569"
			}
		},
		"methodIdentifiers": {
			"bringUmberlla()": "21fed831",
			"getCalc()": "ebaf0dca",
			"internalTestUnits()": "911ec8f5",
			"solarCalc()": "e472c67c",
			"sunny()": "ab02dd7b",
			"umbrella()": "84914262",
			"weatherChanger()": "c000dcdb"
		}
	},
	"abi": [
		{
			"inputs": [],
			"name": "bringUmberlla",
			"outputs": [],
			"stateMutability": "nonpayable",
			"type": "function"
		},
		{
			"inputs": [],
			"name": "getCalc",
			"outputs": [
				{
					"internalType": "uint256",
					"name": "",
					"type": "uint256"
				}
			],
			"stateMutability": "view",
			"type": "function"
		},
		{
			"inputs": [],
			"name": "internalTestUnits",
			"outputs": [],
			"stateMutability": "nonpayable",
			"type": "function"
		},
		{
			"inputs": [],
			"name": "solarCalc",
			"outputs": [],
			"stateMutability": "nonpayable",
			"type": "function"
		},
		{
			"inputs": [],
			"name": "sunny",
			"outputs": [
				{
					"internalType": "bool",
					"name": "",
					"type": "bool"
				}
			],
			"stateMutability": "view",
			"type": "function"
		},
		{
			"inputs": [],
			"name": "umbrella",
			"outputs": [
				{
					"internalType": "bool",
					"name": "",
					"type": "bool"
				}
			],
			"stateMutability": "view",
			"type": "function"
		},
		{
			"inputs": [],
			"name": "weatherChanger",
			"outputs": [],
			"stateMutability": "nonpayable",
			"type": "function"
		}
	]
}