{
	"data": {
		"bytecode": {
			"linkReferences": {},
			"object": "608060405234801561001057600080fd5b506101ac806100206000396000f3fe608060405234801561001057600080fd5b50600436106100415760003560e01c80634691c58f146100465780634fee737f14610050578063dadf8fee1461006e575b600080fd5b61004e610078565b005b6100586100d3565b6040516100659190610120565b60405180910390f35b6100766100fa565b005b6000600a67ffffffffffffffff81111561009557610094610147565b5b6040519080825280601f01601f1916602001820160405280156100c75781602001600182028036833780820191505090505b50905060208101515050565b6000806000803b915060008211156100f0576001925050506100f7565b6000925050505b90565b600080808201604051600481526064815550505050565b61011a8161013b565b82525050565b60006020820190506101356000830184610111565b92915050565b60008115159050919050565b7f4e487b7100000000000000000000000000000000000000000000000000000000600052604160045260246000fdfea26469706673582212202b370fc2c01978d51d2000c5e7745aa94c13cea38e8904f41420e44f40eb3e7d64736f6c63430008070033",
			"opcodes": "PUSH1 0x80 PUSH1 0x40 MSTORE CALLVALUE DUP1 ISZERO PUSH2 0x10 JUMPI PUSH1 0x0 DUP1 REVERT JUMPDEST POP PUSH2 0x1AC DUP1 PUSH2 0x20 PUSH1 0x0 CODECOPY PUSH1 0x0 RETURN INVALID PUSH1 0x80 PUSH1 0x40 MSTORE CALLVALUE DUP1 ISZERO PUSH2 0x10 JUMPI PUSH1 0x0 DUP1 REVERT JUMPDEST POP PUSH1 0x4 CALLDATASIZE LT PUSH2 0x41 JUMPI PUSH1 0x0 CALLDATALOAD PUSH1 0xE0 SHR DUP1 PUSH4 0x4691C58F EQ PUSH2 0x46 JUMPI DUP1 PUSH4 0x4FEE737F EQ PUSH2 0x50 JUMPI DUP1 PUSH4 0xDADF8FEE EQ PUSH2 0x6E JUMPI JUMPDEST PUSH1 0x0 DUP1 REVERT JUMPDEST PUSH2 0x4E PUSH2 0x78 JUMP JUMPDEST STOP JUMPDEST PUSH2 0x58 PUSH2 0xD3 JUMP JUMPDEST PUSH1 0x40 MLOAD PUSH2 0x65 SWAP2 SWAP1 PUSH2 0x120 JUMP JUMPDEST PUSH1 0x40 MLOAD DUP1 SWAP2 SUB SWAP1 RETURN JUMPDEST PUSH2 0x76 PUSH2 0xFA JUMP JUMPDEST STOP JUMPDEST PUSH1 0x0 PUSH1 0xA PUSH8 0xFFFFFFFFFFFFFFFF DUP2 GT ISZERO PUSH2 0x95 JUMPI PUSH2 0x94 PUSH2 0x147 JUMP JUMPDEST JUMPDEST PUSH1 0x40 MLOAD SWAP1 DUP1 DUP3 MSTORE DUP1 PUSH1 0x1F ADD PUSH1 0x1F NOT AND PUSH1 0x20 ADD DUP3 ADD PUSH1 0x40 MSTORE DUP1 ISZERO PUSH2 0xC7 JUMPI DUP2 PUSH1 0x20 ADD PUSH1 0x1 DUP3 MUL DUP1 CALLDATASIZE DUP4 CALLDATACOPY DUP1 DUP3 ADD SWAP2 POP POP SWAP1 POP JUMPDEST POP SWAP1 POP PUSH1 0x20 DUP2 ADD MLOAD POP POP JUMP JUMPDEST PUSH1 0x0 DUP1 PUSH1 0x0 DUP1 EXTCODESIZE SWAP2 POP PUSH1 0x0 DUP3 GT ISZERO PUSH2 0xF0 JUMPI PUSH1 0x1 SWAP3 POP POP POP PUSH2 0xF7 JUMP JUMPDEST PUSH1 0x0 SWAP3 POP POP POP JUMPDEST SWAP1 JUMP JUMPDEST PUSH1 0x0 DUP1 DUP1 DUP3 ADD PUSH1 0x40 MLOAD PUSH1 0x4 DUP2 MSTORE PUSH1 0x64 DUP2 SSTORE POP POP POP POP JUMP JUMPDEST PUSH2 0x11A DUP2 PUSH2 0x13B JUMP JUMPDEST DUP3 MSTORE POP POP JUMP JUMPDEST PUSH1 0x0 PUSH1 0x20 DUP3 ADD SWAP1 POP PUSH2 0x135 PUSH1 0x0 DUP4 ADD DUP5 PUSH2 0x111 JUMP JUMPDEST SWAP3 SWAP2 POP POP JUMP JUMPDEST PUSH1 0x0 DUP2 ISZERO ISZERO SWAP1 POP SWAP2 SWAP1 POP JUMP JUMPDEST PUSH32 0x4E487B7100000000000000000000000000000000000000000000000000000000 PUSH1 0x0 MSTORE PUSH1 0x41 PUSH1 0x4 MSTORE PUSH1 0x24 PUSH1 0x0 REVERT INVALID LOG2 PUSH5 0x6970667358 0x22 SLT KECCAK256 0x2B CALLDATACOPY 0xF 0xC2 0xC0 NOT PUSH25 0xD51D2000C5E7745AA94C13CEA38E8904F41420E44F40EB3E7D PUSH5 0x736F6C6343 STOP ADDMOD SMOD STOP CALLER "
		},
		"gasEstimates": {
			"creation": {
				"codeDepositCost": "85600",
				"executionCost": "135",
				"totalCost": "85735"
			},
			"external": {
				"addToEVM()": "22316",
				"addToEVM2()": "2998",
				"addToEVM3()": "315"
			}
		},
		"methodIdentifiers": {
			"addToEVM()": "dadf8fee",
			"addToEVM2()": "4fee737f",
			"addToEVM3()": "4691c58f"
		}
	},
	"abi": [
		{
			"inputs": [],
			"name": "addToEVM",
			"outputs": [],
			"stateMutability": "nonpayable",
			"type": "function"
		},
		{
			"inputs": [],
			"name": "addToEVM2",
			"outputs": [
				{
					"internalType": "bool",
					"name": "success",
					"type": "bool"
				}
			],
			"stateMutability": "view",
			"type": "function"
		},
		{
			"inputs": [],
			"name": "addToEVM3",
			"outputs": [],
			"stateMutability": "view",
			"type": "function"
		}
	]
}