{
	"data": {
		"bytecode": {
			"linkReferences": {},
			"object": "6080604052600460005534801561001557600080fd5b5060cb806100246000396000f3fe6080604052348015600f57600080fd5b506004361060285760003560e01c8063b4a4fad814602d575b600080fd5b60336047565b604051603e91906070565b60405180910390f35b600060056000541415605b57600190506060565b600090505b90565b606a816089565b82525050565b6000602082019050608360008301846063565b92915050565b6000811515905091905056fea2646970667358221220f809c463e0f3d44068b04d948038fb04ecb220985a79ef4c7c74f1164f8793a864736f6c63430008070033",
			"opcodes": "PUSH1 0x80 PUSH1 0x40 MSTORE PUSH1 0x4 PUSH1 0x0 SSTORE CALLVALUE DUP1 ISZERO PUSH2 0x15 JUMPI PUSH1 0x0 DUP1 REVERT JUMPDEST POP PUSH1 0xCB DUP1 PUSH2 0x24 PUSH1 0x0 CODECOPY PUSH1 0x0 RETURN INVALID PUSH1 0x80 PUSH1 0x40 MSTORE CALLVALUE DUP1 ISZERO PUSH1 0xF JUMPI PUSH1 0x0 DUP1 REVERT JUMPDEST POP PUSH1 0x4 CALLDATASIZE LT PUSH1 0x28 JUMPI PUSH1 0x0 CALLDATALOAD PUSH1 0xE0 SHR DUP1 PUSH4 0xB4A4FAD8 EQ PUSH1 0x2D JUMPI JUMPDEST PUSH1 0x0 DUP1 REVERT JUMPDEST PUSH1 0x33 PUSH1 0x47 JUMP JUMPDEST PUSH1 0x40 MLOAD PUSH1 0x3E SWAP2 SWAP1 PUSH1 0x70 JUMP JUMPDEST PUSH1 0x40 MLOAD DUP1 SWAP2 SUB SWAP1 RETURN JUMPDEST PUSH1 0x0 PUSH1 0x5 PUSH1 0x0 SLOAD EQ ISZERO PUSH1 0x5B JUMPI PUSH1 0x1 SWAP1 POP PUSH1 0x60 JUMP JUMPDEST PUSH1 0x0 SWAP1 POP JUMPDEST SWAP1 JUMP JUMPDEST PUSH1 0x6A DUP2 PUSH1 0x89 JUMP JUMPDEST DUP3 MSTORE POP POP JUMP JUMPDEST PUSH1 0x0 PUSH1 0x20 DUP3 ADD SWAP1 POP PUSH1 0x83 PUSH1 0x0 DUP4 ADD DUP5 PUSH1 0x63 JUMP JUMPDEST SWAP3 SWAP2 POP POP JUMP JUMPDEST PUSH1 0x0 DUP2 ISZERO ISZERO SWAP1 POP SWAP2 SWAP1 POP JUMP INVALID LOG2 PUSH5 0x6970667358 0x22 SLT KECCAK256 0xF8 MULMOD 0xC4 PUSH4 0xE0F3D440 PUSH9 0xB04D948038FB04ECB2 KECCAK256 SWAP9 GAS PUSH26 0xEF4C7C74F1164F8793A864736F6C634300080700330000000000 "
		},
		"gasEstimates": {
			"creation": {
				"codeDepositCost": "40600",
				"executionCost": "22199",
				"totalCost": "62799"
			},
			"external": {
				"validateOranges()": "2458"
			}
		},
		"methodIdentifiers": {
			"validateOranges()": "b4a4fad8"
		}
	},
	"abi": [
		{
			"inputs": [],
			"name": "validateOranges",
			"outputs": [
				{
					"internalType": "bool",
					"name": "",
					"type": "bool"
				}
			],
			"stateMutability": "view",
			"type": "function"
		}
	]
}