{
	"data": {
		"bytecode": {
			"linkReferences": {},
			"object": "60806040526004600055600360015534801561001a57600080fd5b506101668061002a6000396000f3fe608060405234801561001057600080fd5b506004361061002b5760003560e01c806312ae639714610030575b600080fd5b61003861004e565b6040516100459190610086565b60405180910390f35b600080600290506000548161006391906100a1565b8161006e91906100a1565b90508091505090565b610080816100f7565b82525050565b600060208201905061009b6000830184610077565b92915050565b60006100ac826100f7565b91506100b7836100f7565b9250827fffffffffffffffffffffffffffffffffffffffffffffffffffffffffffffffff038211156100ec576100eb610101565b5b828201905092915050565b6000819050919050565b7f4e487b7100000000000000000000000000000000000000000000000000000000600052601160045260246000fdfea2646970667358221220bea16aca6abb4523e8f16eb1a8b77b6547358643c5a91653712b0446e938ad2064736f6c63430008070033",
			"opcodes": "PUSH1 0x80 PUSH1 0x40 MSTORE PUSH1 0x4 PUSH1 0x0 SSTORE PUSH1 0x3 PUSH1 0x1 SSTORE CALLVALUE DUP1 ISZERO PUSH2 0x1A JUMPI PUSH1 0x0 DUP1 REVERT JUMPDEST POP PUSH2 0x166 DUP1 PUSH2 0x2A PUSH1 0x0 CODECOPY PUSH1 0x0 RETURN INVALID PUSH1 0x80 PUSH1 0x40 MSTORE CALLVALUE DUP1 ISZERO PUSH2 0x10 JUMPI PUSH1 0x0 DUP1 REVERT JUMPDEST POP PUSH1 0x4 CALLDATASIZE LT PUSH2 0x2B JUMPI PUSH1 0x0 CALLDATALOAD PUSH1 0xE0 SHR DUP1 PUSH4 0x12AE6397 EQ PUSH2 0x30 JUMPI JUMPDEST PUSH1 0x0 DUP1 REVERT JUMPDEST PUSH2 0x38 PUSH2 0x4E JUMP JUMPDEST PUSH1 0x40 MLOAD PUSH2 0x45 SWAP2 SWAP1 PUSH2 0x86 JUMP JUMPDEST PUSH1 0x40 MLOAD DUP1 SWAP2 SUB SWAP1 RETURN JUMPDEST PUSH1 0x0 DUP1 PUSH1 0x2 SWAP1 POP PUSH1 0x0 SLOAD DUP2 PUSH2 0x63 SWAP2 SWAP1 PUSH2 0xA1 JUMP JUMPDEST DUP2 PUSH2 0x6E SWAP2 SWAP1 PUSH2 0xA1 JUMP JUMPDEST SWAP1 POP DUP1 SWAP2 POP POP SWAP1 JUMP JUMPDEST PUSH2 0x80 DUP2 PUSH2 0xF7 JUMP JUMPDEST DUP3 MSTORE POP POP JUMP JUMPDEST PUSH1 0x0 PUSH1 0x20 DUP3 ADD SWAP1 POP PUSH2 0x9B PUSH1 0x0 DUP4 ADD DUP5 PUSH2 0x77 JUMP JUMPDEST SWAP3 SWAP2 POP POP JUMP JUMPDEST PUSH1 0x0 PUSH2 0xAC DUP3 PUSH2 0xF7 JUMP JUMPDEST SWAP2 POP PUSH2 0xB7 DUP4 PUSH2 0xF7 JUMP JUMPDEST SWAP3 POP DUP3 PUSH32 0xFFFFFFFFFFFFFFFFFFFFFFFFFFFFFFFFFFFFFFFFFFFFFFFFFFFFFFFFFFFFFFFF SUB DUP3 GT ISZERO PUSH2 0xEC JUMPI PUSH2 0xEB PUSH2 0x101 JUMP JUMPDEST JUMPDEST DUP3 DUP3 ADD SWAP1 POP SWAP3 SWAP2 POP POP JUMP JUMPDEST PUSH1 0x0 DUP2 SWAP1 POP SWAP2 SWAP1 POP JUMP JUMPDEST PUSH32 0x4E487B7100000000000000000000000000000000000000000000000000000000 PUSH1 0x0 MSTORE PUSH1 0x11 PUSH1 0x4 MSTORE PUSH1 0x24 PUSH1 0x0 REVERT INVALID LOG2 PUSH5 0x6970667358 0x22 SLT KECCAK256 0xBE LOG1 PUSH11 0xCA6ABB4523E8F16EB1A8B7 PUSH28 0x6547358643C5A91653712B0446E938AD2064736F6C63430008070033 "
		},
		"gasEstimates": {
			"creation": {
				"codeDepositCost": "71600",
				"executionCost": "44335",
				"totalCost": "115935"
			},
			"external": {
				"assign()": "infinite"
			}
		},
		"methodIdentifiers": {
			"assign()": "12ae6397"
		}
	},
	"abi": [
		{
			"inputs": [],
			"name": "assign",
			"outputs": [
				{
					"internalType": "uint256",
					"name": "",
					"type": "uint256"
				}
			],
			"stateMutability": "view",
			"type": "function"
		}
	]
}