{
	"data": {
		"bytecode": {
			"linkReferences": {},
			"object": "608060405234801561001057600080fd5b5060405161044238038061044283398181016040528101906100329190610082565b806000819055506000600281905550506100af565b600080fd5b6000819050919050565b61005f8161004c565b811461006a57600080fd5b50565b60008151905061007c81610056565b92915050565b60006020828403121561009857610097610047565b5b60006100a68482850161006d565b91505092915050565b610384806100be6000396000f3fe6080604052600436106100345760003560e01c80638e7ea5b214610039578063bb0c829814610050578063d11711a21461007b575b600080fd5b34801561004557600080fd5b5061004e610085565b005b34801561005c57600080fd5b50610065610120565b6040516100729190610202565b60405180910390f35b610083610126565b005b60018080549050101561009757600080fd5b600180815481106100ab576100aa61021d565b5b9060005260206000200160009054906101000a900473ffffffffffffffffffffffffffffffffffffffff1673ffffffffffffffffffffffffffffffffffffffff166108fc6002549081150290604051600060405180830381858888f1935050505015801561011d573d6000803e3d6000fd5b50565b60005481565b60005434101561016b576040517f08c379a0000000000000000000000000000000000000000000000000000000008152600401610162906102a9565b60405180910390fd5b346002600082825461017d91906102f8565b925050819055506001339080600181540180825580915050600190039060005260206000200160009091909190916101000a81548173ffffffffffffffffffffffffffffffffffffffff021916908373ffffffffffffffffffffffffffffffffffffffff160217905550565b6000819050919050565b6101fc816101e9565b82525050565b600060208201905061021760008301846101f3565b92915050565b7f4e487b7100000000000000000000000000000000000000000000000000000000600052603260045260246000fd5b600082825260208201905092915050565b7f616d6f756e7420746f6f206c6f77000000000000000000000000000000000000600082015250565b6000610293600e8361024c565b915061029e8261025d565b602082019050919050565b600060208201905081810360008301526102c281610286565b9050919050565b7f4e487b7100000000000000000000000000000000000000000000000000000000600052601160045260246000fd5b6000610303826101e9565b915061030e836101e9565b9250827fffffffffffffffffffffffffffffffffffffffffffffffffffffffffffffffff03821115610343576103426102c9565b5b82820190509291505056fea264697066735822122027b3f0adeb2bd87dd4bd0f6f47c9631c585b96bc5a37b0822a93d570fd6f955d64736f6c634300080a0033",
			"opcodes": "PUSH1 0x80 PUSH1 0x40 MSTORE CALLVALUE DUP1 ISZERO PUSH2 0x10 JUMPI PUSH1 0x0 DUP1 REVERT JUMPDEST POP PUSH1 0x40 MLOAD PUSH2 0x442 CODESIZE SUB DUP1 PUSH2 0x442 DUP4 CODECOPY DUP2 DUP2 ADD PUSH1 0x40 MSTORE DUP2 ADD SWAP1 PUSH2 0x32 SWAP2 SWAP1 PUSH2 0x82 JUMP JUMPDEST DUP1 PUSH1 0x0 DUP2 SWAP1 SSTORE POP PUSH1 0x0 PUSH1 0x2 DUP2 SWAP1 SSTORE POP POP PUSH2 0xAF JUMP JUMPDEST PUSH1 0x0 DUP1 REVERT JUMPDEST PUSH1 0x0 DUP2 SWAP1 POP SWAP2 SWAP1 POP JUMP JUMPDEST PUSH2 0x5F DUP2 PUSH2 0x4C JUMP JUMPDEST DUP2 EQ PUSH2 0x6A JUMPI PUSH1 0x0 DUP1 REVERT JUMPDEST POP JUMP JUMPDEST PUSH1 0x0 DUP2 MLOAD SWAP1 POP PUSH2 0x7C DUP2 PUSH2 0x56 JUMP JUMPDEST SWAP3 SWAP2 POP POP JUMP JUMPDEST PUSH1 0x0 PUSH1 0x20 DUP3 DUP5 SUB SLT ISZERO PUSH2 0x98 JUMPI PUSH2 0x97 PUSH2 0x47 JUMP JUMPDEST JUMPDEST PUSH1 0x0 PUSH2 0xA6 DUP5 DUP3 DUP6 ADD PUSH2 0x6D JUMP JUMPDEST SWAP2 POP POP SWAP3 SWAP2 POP POP JUMP JUMPDEST PUSH2 0x384 DUP1 PUSH2 0xBE PUSH1 0x0 CODECOPY PUSH1 0x0 RETURN INVALID PUSH1 0x80 PUSH1 0x40 MSTORE PUSH1 0x4 CALLDATASIZE LT PUSH2 0x34 JUMPI PUSH1 0x0 CALLDATALOAD PUSH1 0xE0 SHR DUP1 PUSH4 0x8E7EA5B2 EQ PUSH2 0x39 JUMPI DUP1 PUSH4 0xBB0C8298 EQ PUSH2 0x50 JUMPI DUP1 PUSH4 0xD11711A2 EQ PUSH2 0x7B JUMPI JUMPDEST PUSH1 0x0 DUP1 REVERT JUMPDEST CALLVALUE DUP1 ISZERO PUSH2 0x45 JUMPI PUSH1 0x0 DUP1 REVERT JUMPDEST POP PUSH2 0x4E PUSH2 0x85 JUMP JUMPDEST STOP JUMPDEST CALLVALUE DUP1 ISZERO PUSH2 0x5C JUMPI PUSH1 0x0 DUP1 REVERT JUMPDEST POP PUSH2 0x65 PUSH2 0x120 JUMP JUMPDEST PUSH1 0x40 MLOAD PUSH2 0x72 SWAP2 SWAP1 PUSH2 0x202 JUMP JUMPDEST PUSH1 0x40 MLOAD DUP1 SWAP2 SUB SWAP1 RETURN JUMPDEST PUSH2 0x83 PUSH2 0x126 JUMP JUMPDEST STOP JUMPDEST PUSH1 0x1 DUP1 DUP1 SLOAD SWAP1 POP LT ISZERO PUSH2 0x97 JUMPI PUSH1 0x0 DUP1 REVERT JUMPDEST PUSH1 0x1 DUP1 DUP2 SLOAD DUP2 LT PUSH2 0xAB JUMPI PUSH2 0xAA PUSH2 0x21D JUMP JUMPDEST JUMPDEST SWAP1 PUSH1 0x0 MSTORE PUSH1 0x20 PUSH1 0x0 KECCAK256 ADD PUSH1 0x0 SWAP1 SLOAD SWAP1 PUSH2 0x100 EXP SWAP1 DIV PUSH20 0xFFFFFFFFFFFFFFFFFFFFFFFFFFFFFFFFFFFFFFFF AND PUSH20 0xFFFFFFFFFFFFFFFFFFFFFFFFFFFFFFFFFFFFFFFF AND PUSH2 0x8FC PUSH1 0x2 SLOAD SWAP1 DUP2 ISZERO MUL SWAP1 PUSH1 0x40 MLOAD PUSH1 0x0 PUSH1 0x40 MLOAD DUP1 DUP4 SUB DUP2 DUP6 DUP9 DUP9 CALL SWAP4 POP POP POP POP ISZERO DUP1 ISZERO PUSH2 0x11D JUMPI RETURNDATASIZE PUSH1 0x0 DUP1 RETURNDATACOPY RETURNDATASIZE PUSH1 0x0 REVERT JUMPDEST POP JUMP JUMPDEST PUSH1 0x0 SLOAD DUP2 JUMP JUMPDEST PUSH1 0x0 SLOAD CALLVALUE LT ISZERO PUSH2 0x16B JUMPI PUSH1 0x40 MLOAD PUSH32 0x8C379A000000000000000000000000000000000000000000000000000000000 DUP2 MSTORE PUSH1 0x4 ADD PUSH2 0x162 SWAP1 PUSH2 0x2A9 JUMP JUMPDEST PUSH1 0x40 MLOAD DUP1 SWAP2 SUB SWAP1 REVERT JUMPDEST CALLVALUE PUSH1 0x2 PUSH1 0x0 DUP3 DUP3 SLOAD PUSH2 0x17D SWAP2 SWAP1 PUSH2 0x2F8 JUMP JUMPDEST SWAP3 POP POP DUP2 SWAP1 SSTORE POP PUSH1 0x1 CALLER SWAP1 DUP1 PUSH1 0x1 DUP2 SLOAD ADD DUP1 DUP3 SSTORE DUP1 SWAP2 POP POP PUSH1 0x1 SWAP1 SUB SWAP1 PUSH1 0x0 MSTORE PUSH1 0x20 PUSH1 0x0 KECCAK256 ADD PUSH1 0x0 SWAP1 SWAP2 SWAP1 SWAP2 SWAP1 SWAP2 PUSH2 0x100 EXP DUP2 SLOAD DUP2 PUSH20 0xFFFFFFFFFFFFFFFFFFFFFFFFFFFFFFFFFFFFFFFF MUL NOT AND SWAP1 DUP4 PUSH20 0xFFFFFFFFFFFFFFFFFFFFFFFFFFFFFFFFFFFFFFFF AND MUL OR SWAP1 SSTORE POP JUMP JUMPDEST PUSH1 0x0 DUP2 SWAP1 POP SWAP2 SWAP1 POP JUMP JUMPDEST PUSH2 0x1FC DUP2 PUSH2 0x1E9 JUMP JUMPDEST DUP3 MSTORE POP POP JUMP JUMPDEST PUSH1 0x0 PUSH1 0x20 DUP3 ADD SWAP1 POP PUSH2 0x217 PUSH1 0x0 DUP4 ADD DUP5 PUSH2 0x1F3 JUMP JUMPDEST SWAP3 SWAP2 POP POP JUMP JUMPDEST PUSH32 0x4E487B7100000000000000000000000000000000000000000000000000000000 PUSH1 0x0 MSTORE PUSH1 0x32 PUSH1 0x4 MSTORE PUSH1 0x24 PUSH1 0x0 REVERT JUMPDEST PUSH1 0x0 DUP3 DUP3 MSTORE PUSH1 0x20 DUP3 ADD SWAP1 POP SWAP3 SWAP2 POP POP JUMP JUMPDEST PUSH32 0x616D6F756E7420746F6F206C6F77000000000000000000000000000000000000 PUSH1 0x0 DUP3 ADD MSTORE POP JUMP JUMPDEST PUSH1 0x0 PUSH2 0x293 PUSH1 0xE DUP4 PUSH2 0x24C JUMP JUMPDEST SWAP2 POP PUSH2 0x29E DUP3 PUSH2 0x25D JUMP JUMPDEST PUSH1 0x20 DUP3 ADD SWAP1 POP SWAP2 SWAP1 POP JUMP JUMPDEST PUSH1 0x0 PUSH1 0x20 DUP3 ADD SWAP1 POP DUP2 DUP2 SUB PUSH1 0x0 DUP4 ADD MSTORE PUSH2 0x2C2 DUP2 PUSH2 0x286 JUMP JUMPDEST SWAP1 POP SWAP2 SWAP1 POP JUMP JUMPDEST PUSH32 0x4E487B7100000000000000000000000000000000000000000000000000000000 PUSH1 0x0 MSTORE PUSH1 0x11 PUSH1 0x4 MSTORE PUSH1 0x24 PUSH1 0x0 REVERT JUMPDEST PUSH1 0x0 PUSH2 0x303 DUP3 PUSH2 0x1E9 JUMP JUMPDEST SWAP2 POP PUSH2 0x30E DUP4 PUSH2 0x1E9 JUMP JUMPDEST SWAP3 POP DUP3 PUSH32 0xFFFFFFFFFFFFFFFFFFFFFFFFFFFFFFFFFFFFFFFFFFFFFFFFFFFFFFFFFFFFFFFF SUB DUP3 GT ISZERO PUSH2 0x343 JUMPI PUSH2 0x342 PUSH2 0x2C9 JUMP JUMPDEST JUMPDEST DUP3 DUP3 ADD SWAP1 POP SWAP3 SWAP2 POP POP JUMP INVALID LOG2 PUSH5 0x6970667358 0x22 SLT KECCAK256 0x27 0xB3 CREATE 0xAD 0xEB 0x2B 0xD8 PUSH30 0xD4BD0F6F47C9631C585B96BC5A37B0822A93D570FD6F955D64736F6C6343 STOP ADDMOD EXP STOP CALLER "
		},
		"gasEstimates": {
			"creation": {
				"codeDepositCost": "180000",
				"executionCost": "infinite",
				"totalCost": "infinite"
			},
			"external": {
				"getWinner()": "infinite",
				"minimumAmount()": "2429",
				"participate()": "infinite"
			}
		},
		"methodIdentifiers": {
			"getWinner()": "8e7ea5b2",
			"minimumAmount()": "bb0c8298",
			"participate()": "d11711a2"
		}
	},
	"abi": [
		{
			"inputs": [
				{
					"internalType": "uint256",
					"name": "_amount",
					"type": "uint256"
				}
			],
			"stateMutability": "nonpayable",
			"type": "constructor"
		},
		{
			"inputs": [],
			"name": "getWinner",
			"outputs": [],
			"stateMutability": "nonpayable",
			"type": "function"
		},
		{
			"inputs": [],
			"name": "minimumAmount",
			"outputs": [
				{
					"internalType": "uint256",
					"name": "",
					"type": "uint256"
				}
			],
			"stateMutability": "view",
			"type": "function"
		},
		{
			"inputs": [],
			"name": "participate",
			"outputs": [],
			"stateMutability": "payable",
			"type": "function"
		}
	]
}