{
	"data": {
		"bytecode": {
			"linkReferences": {
				"ExcerciseLibrary.sol": {
					"Search2": [
						{
							"length": 20,
							"start": 327
						}
					]
				}
			},
			"object": "608060405234801561001057600080fd5b50600060019080600181540180825580915050600190039060005260206000200160009091909190915055600060029080600181540180825580915050600190039060005260206000200160009091909190915055600060039080600181540180825580915050600190039060005260206000200160009091909190915055600060049080600181540180825580915050600190039060005260206000200160009091909190915055600060059080600181540180825580915050600190039060005260206000200160009091909190915055610200806100f26000396000f3fe608060405234801561001057600080fd5b506004361061002b5760003560e01c80631d32145914610030575b600080fd5b61003861004e565b6040516100459190610177565b60405180910390f35b600080600073__$edace685bfdcee64910ab7804091af06cf$__6324fef5c8909160046040518363ffffffff1660e01b815260040161008e92919061014e565b60206040518083038186803b1580156100a657600080fd5b505af41580156100ba573d6000803e3d6000fd5b505050506040513d601f19601f820116820180604052508101906100de91906100fc565b90508091505090565b6000815190506100f6816101b3565b92915050565b600060208284031215610112576101116101ae565b5b6000610120848285016100e7565b91505092915050565b8082525050565b6101398161019c565b82525050565b61014881610192565b82525050565b60006040820190506101636000830185610129565b6101706020830184610130565b9392505050565b600060208201905061018c600083018461013f565b92915050565b6000819050919050565b60006101a782610192565b9050919050565b600080fd5b6101bc81610192565b81146101c757600080fd5b5056fea2646970667358221220ffaef81ac0f01eb8eed594a7851c88dab1a544a3a51d19d12db475cc98e6112464736f6c63430008070033",
			"opcodes": "PUSH1 0x80 PUSH1 0x40 MSTORE CALLVALUE DUP1 ISZERO PUSH2 0x10 JUMPI PUSH1 0x0 DUP1 REVERT JUMPDEST POP PUSH1 0x0 PUSH1 0x1 SWAP1 DUP1 PUSH1 0x1 DUP2 SLOAD ADD DUP1 DUP3 SSTORE DUP1 SWAP2 POP POP PUSH1 0x1 SWAP1 SUB SWAP1 PUSH1 0x0 MSTORE PUSH1 0x20 PUSH1 0x0 KECCAK256 ADD PUSH1 0x0 SWAP1 SWAP2 SWAP1 SWAP2 SWAP1 SWAP2 POP SSTORE PUSH1 0x0 PUSH1 0x2 SWAP1 DUP1 PUSH1 0x1 DUP2 SLOAD ADD DUP1 DUP3 SSTORE DUP1 SWAP2 POP POP PUSH1 0x1 SWAP1 SUB SWAP1 PUSH1 0x0 MSTORE PUSH1 0x20 PUSH1 0x0 KECCAK256 ADD PUSH1 0x0 SWAP1 SWAP2 SWAP1 SWAP2 SWAP1 SWAP2 POP SSTORE PUSH1 0x0 PUSH1 0x3 SWAP1 DUP1 PUSH1 0x1 DUP2 SLOAD ADD DUP1 DUP3 SSTORE DUP1 SWAP2 POP POP PUSH1 0x1 SWAP1 SUB SWAP1 PUSH1 0x0 MSTORE PUSH1 0x20 PUSH1 0x0 KECCAK256 ADD PUSH1 0x0 SWAP1 SWAP2 SWAP1 SWAP2 SWAP1 SWAP2 POP SSTORE PUSH1 0x0 PUSH1 0x4 SWAP1 DUP1 PUSH1 0x1 DUP2 SLOAD ADD DUP1 DUP3 SSTORE DUP1 SWAP2 POP POP PUSH1 0x1 SWAP1 SUB SWAP1 PUSH1 0x0 MSTORE PUSH1 0x20 PUSH1 0x0 KECCAK256 ADD PUSH1 0x0 SWAP1 SWAP2 SWAP1 SWAP2 SWAP1 SWAP2 POP SSTORE PUSH1 0x0 PUSH1 0x5 SWAP1 DUP1 PUSH1 0x1 DUP2 SLOAD ADD DUP1 DUP3 SSTORE DUP1 SWAP2 POP POP PUSH1 0x1 SWAP1 SUB SWAP1 PUSH1 0x0 MSTORE PUSH1 0x20 PUSH1 0x0 KECCAK256 ADD PUSH1 0x0 SWAP1 SWAP2 SWAP1 SWAP2 SWAP1 SWAP2 POP SSTORE PUSH2 0x200 DUP1 PUSH2 0xF2 PUSH1 0x0 CODECOPY PUSH1 0x0 RETURN INVALID PUSH1 0x80 PUSH1 0x40 MSTORE CALLVALUE DUP1 ISZERO PUSH2 0x10 JUMPI PUSH1 0x0 DUP1 REVERT JUMPDEST POP PUSH1 0x4 CALLDATASIZE LT PUSH2 0x2B JUMPI PUSH1 0x0 CALLDATALOAD PUSH1 0xE0 SHR DUP1 PUSH4 0x1D321459 EQ PUSH2 0x30 JUMPI JUMPDEST PUSH1 0x0 DUP1 REVERT JUMPDEST PUSH2 0x38 PUSH2 0x4E JUMP JUMPDEST PUSH1 0x40 MLOAD PUSH2 0x45 SWAP2 SWAP1 PUSH2 0x177 JUMP JUMPDEST PUSH1 0x40 MLOAD DUP1 SWAP2 SUB SWAP1 RETURN JUMPDEST PUSH1 0x0 DUP1 PUSH1 0x0 PUSH20 0x0 PUSH4 0x24FEF5C8 SWAP1 SWAP2 PUSH1 0x4 PUSH1 0x40 MLOAD DUP4 PUSH4 0xFFFFFFFF AND PUSH1 0xE0 SHL DUP2 MSTORE PUSH1 0x4 ADD PUSH2 0x8E SWAP3 SWAP2 SWAP1 PUSH2 0x14E JUMP JUMPDEST PUSH1 0x20 PUSH1 0x40 MLOAD DUP1 DUP4 SUB DUP2 DUP7 DUP1 EXTCODESIZE ISZERO DUP1 ISZERO PUSH2 0xA6 JUMPI PUSH1 0x0 DUP1 REVERT JUMPDEST POP GAS DELEGATECALL ISZERO DUP1 ISZERO PUSH2 0xBA JUMPI RETURNDATASIZE PUSH1 0x0 DUP1 RETURNDATACOPY RETURNDATASIZE PUSH1 0x0 REVERT JUMPDEST POP POP POP POP PUSH1 0x40 MLOAD RETURNDATASIZE PUSH1 0x1F NOT PUSH1 0x1F DUP3 ADD AND DUP3 ADD DUP1 PUSH1 0x40 MSTORE POP DUP2 ADD SWAP1 PUSH2 0xDE SWAP2 SWAP1 PUSH2 0xFC JUMP JUMPDEST SWAP1 POP DUP1 SWAP2 POP POP SWAP1 JUMP JUMPDEST PUSH1 0x0 DUP2 MLOAD SWAP1 POP PUSH2 0xF6 DUP2 PUSH2 0x1B3 JUMP JUMPDEST SWAP3 SWAP2 POP POP JUMP JUMPDEST PUSH1 0x0 PUSH1 0x20 DUP3 DUP5 SUB SLT ISZERO PUSH2 0x112 JUMPI PUSH2 0x111 PUSH2 0x1AE JUMP JUMPDEST JUMPDEST PUSH1 0x0 PUSH2 0x120 DUP5 DUP3 DUP6 ADD PUSH2 0xE7 JUMP JUMPDEST SWAP2 POP POP SWAP3 SWAP2 POP POP JUMP JUMPDEST DUP1 DUP3 MSTORE POP POP JUMP JUMPDEST PUSH2 0x139 DUP2 PUSH2 0x19C JUMP JUMPDEST DUP3 MSTORE POP POP JUMP JUMPDEST PUSH2 0x148 DUP2 PUSH2 0x192 JUMP JUMPDEST DUP3 MSTORE POP POP JUMP JUMPDEST PUSH1 0x0 PUSH1 0x40 DUP3 ADD SWAP1 POP PUSH2 0x163 PUSH1 0x0 DUP4 ADD DUP6 PUSH2 0x129 JUMP JUMPDEST PUSH2 0x170 PUSH1 0x20 DUP4 ADD DUP5 PUSH2 0x130 JUMP JUMPDEST SWAP4 SWAP3 POP POP POP JUMP JUMPDEST PUSH1 0x0 PUSH1 0x20 DUP3 ADD SWAP1 POP PUSH2 0x18C PUSH1 0x0 DUP4 ADD DUP5 PUSH2 0x13F JUMP JUMPDEST SWAP3 SWAP2 POP POP JUMP JUMPDEST PUSH1 0x0 DUP2 SWAP1 POP SWAP2 SWAP1 POP JUMP JUMPDEST PUSH1 0x0 PUSH2 0x1A7 DUP3 PUSH2 0x192 JUMP JUMPDEST SWAP1 POP SWAP2 SWAP1 POP JUMP JUMPDEST PUSH1 0x0 DUP1 REVERT JUMPDEST PUSH2 0x1BC DUP2 PUSH2 0x192 JUMP JUMPDEST DUP2 EQ PUSH2 0x1C7 JUMPI PUSH1 0x0 DUP1 REVERT JUMPDEST POP JUMP INVALID LOG2 PUSH5 0x6970667358 0x22 SLT KECCAK256 SELFDESTRUCT 0xAE 0xF8 BYTE 0xC0 CREATE 0x1E 0xB8 0xEE 0xD5 SWAP5 0xA7 DUP6 SHR DUP9 0xDA 0xB1 0xA5 DIFFICULTY LOG3 0xA5 SAR NOT 0xD1 0x2D 0xB4 PUSH22 0xCC98E6112464736F6C63430008070033000000000000 "
		},
		"gasEstimates": {
			"creation": {
				"codeDepositCost": "102400",
				"executionCost": "232262",
				"totalCost": "334662"
			},
			"external": {
				"isValuePresent()": "infinite"
			}
		},
		"methodIdentifiers": {
			"isValuePresent()": "1d321459"
		}
	},
	"abi": [
		{
			"inputs": [],
			"stateMutability": "nonpayable",
			"type": "constructor"
		},
		{
			"inputs": [],
			"name": "isValuePresent",
			"outputs": [
				{
					"internalType": "uint256",
					"name": "",
					"type": "uint256"
				}
			],
			"stateMutability": "view",
			"type": "function"
		}
	]
}