{
	"data": {
		"bytecode": {
			"linkReferences": {},
			"object": "608060405234801561001057600080fd5b5060cc8061001f6000396000f3fe6080604052348015600f57600080fd5b506004361060285760003560e01c806363bae96214602d575b600080fd5b60336047565b604051603e91906071565b60405180910390f35b6000806000339050803b915060008263ffffffff16119250505090565b606b81608a565b82525050565b6000602082019050608460008301846064565b92915050565b6000811515905091905056fea2646970667358221220a298d3581e1064b2d1740d49aca34d64e8e18c42d2f837ccc362fbc26bae4f7864736f6c63430008070033",
			"opcodes": "PUSH1 0x80 PUSH1 0x40 MSTORE CALLVALUE DUP1 ISZERO PUSH2 0x10 JUMPI PUSH1 0x0 DUP1 REVERT JUMPDEST POP PUSH1 0xCC DUP1 PUSH2 0x1F PUSH1 0x0 CODECOPY PUSH1 0x0 RETURN INVALID PUSH1 0x80 PUSH1 0x40 MSTORE CALLVALUE DUP1 ISZERO PUSH1 0xF JUMPI PUSH1 0x0 DUP1 REVERT JUMPDEST POP PUSH1 0x4 CALLDATASIZE LT PUSH1 0x28 JUMPI PUSH1 0x0 CALLDATALOAD PUSH1 0xE0 SHR DUP1 PUSH4 0x63BAE962 EQ PUSH1 0x2D JUMPI JUMPDEST PUSH1 0x0 DUP1 REVERT JUMPDEST PUSH1 0x33 PUSH1 0x47 JUMP JUMPDEST PUSH1 0x40 MLOAD PUSH1 0x3E SWAP2 SWAP1 PUSH1 0x71 JUMP JUMPDEST PUSH1 0x40 MLOAD DUP1 SWAP2 SUB SWAP1 RETURN JUMPDEST PUSH1 0x0 DUP1 PUSH1 0x0 CALLER SWAP1 POP DUP1 EXTCODESIZE SWAP2 POP PUSH1 0x0 DUP3 PUSH4 0xFFFFFFFF AND GT SWAP3 POP POP POP SWAP1 JUMP JUMPDEST PUSH1 0x6B DUP2 PUSH1 0x8A JUMP JUMPDEST DUP3 MSTORE POP POP JUMP JUMPDEST PUSH1 0x0 PUSH1 0x20 DUP3 ADD SWAP1 POP PUSH1 0x84 PUSH1 0x0 DUP4 ADD DUP5 PUSH1 0x64 JUMP JUMPDEST SWAP3 SWAP2 POP POP JUMP JUMPDEST PUSH1 0x0 DUP2 ISZERO ISZERO SWAP1 POP SWAP2 SWAP1 POP JUMP INVALID LOG2 PUSH5 0x6970667358 0x22 SLT KECCAK256 LOG2 SWAP9 0xD3 PC 0x1E LT PUSH5 0xB2D1740D49 0xAC LOG3 0x4D PUSH5 0xE8E18C42D2 0xF8 CALLDATACOPY 0xCC 0xC3 PUSH3 0xFBC26B 0xAE 0x4F PUSH25 0x64736F6C634300080700330000000000000000000000000000 "
		},
		"gasEstimates": {
			"creation": {
				"codeDepositCost": "40800",
				"executionCost": "93",
				"totalCost": "40893"
			},
			"external": {
				"isItAContract()": "2958"
			}
		},
		"methodIdentifiers": {
			"isItAContract()": "63bae962"
		}
	},
	"abi": [
		{
			"inputs": [],
			"name": "isItAContract",
			"outputs": [
				{
					"internalType": "bool",
					"name": "",
					"type": "bool"
				}
			],
			"stateMutability": "view",
			"type": "function"
		}
	]
}